{
  "contractName": "BallotableContent",
  "abi": [
    {
      "constant": true,
      "inputs": [
        {
          "name": "",
          "type": "address"
        }
      ],
      "name": "rewards",
      "outputs": [
        {
          "name": "",
          "type": "uint256"
        }
      ],
      "payable": false,
      "stateMutability": "view",
      "type": "function"
    },
    {
      "constant": false,
      "inputs": [],
      "name": "finalizationIfNeeded",
      "outputs": [],
      "payable": false,
      "stateMutability": "nonpayable",
      "type": "function"
    },
    {
      "constant": true,
      "inputs": [],
      "name": "contentID",
      "outputs": [
        {
          "name": "",
          "type": "uint256"
        }
      ],
      "payable": false,
      "stateMutability": "view",
      "type": "function"
    },
    {
      "constant": true,
      "inputs": [],
      "name": "classifiedStatus",
      "outputs": [
        {
          "name": "",
          "type": "uint8"
        }
      ],
      "payable": false,
      "stateMutability": "view",
      "type": "function"
    },
    {
      "constant": true,
      "inputs": [
        {
          "name": "",
          "type": "uint256"
        }
      ],
      "name": "electedPlayers",
      "outputs": [
        {
          "name": "",
          "type": "address"
        }
      ],
      "payable": false,
      "stateMutability": "view",
      "type": "function"
    },
    {
      "constant": true,
      "inputs": [],
      "name": "updatedAt",
      "outputs": [
        {
          "name": "",
          "type": "uint256"
        }
      ],
      "payable": false,
      "stateMutability": "view",
      "type": "function"
    },
    {
      "constant": true,
      "inputs": [],
      "name": "nextRoundAt",
      "outputs": [
        {
          "name": "",
          "type": "uint256"
        }
      ],
      "payable": false,
      "stateMutability": "view",
      "type": "function"
    },
    {
      "constant": true,
      "inputs": [],
      "name": "evaluatedScore",
      "outputs": [
        {
          "name": "accuracyScore",
          "type": "uint8"
        },
        {
          "name": "relevantScore",
          "type": "uint8"
        }
      ],
      "payable": false,
      "stateMutability": "view",
      "type": "function"
    },
    {
      "constant": true,
      "inputs": [],
      "name": "ballotStatus",
      "outputs": [
        {
          "name": "",
          "type": "uint8"
        }
      ],
      "payable": false,
      "stateMutability": "view",
      "type": "function"
    },
    {
      "constant": true,
      "inputs": [],
      "name": "createdAt",
      "outputs": [
        {
          "name": "",
          "type": "uint256"
        }
      ],
      "payable": false,
      "stateMutability": "view",
      "type": "function"
    },
    {
      "constant": false,
      "inputs": [
        {
          "name": "accuracyScore",
          "type": "uint8"
        },
        {
          "name": "relevantScore",
          "type": "uint8"
        },
        {
          "name": "message",
          "type": "string"
        }
      ],
      "name": "ballot",
      "outputs": [],
      "payable": true,
      "stateMutability": "payable",
      "type": "function"
    },
    {
      "inputs": [
        {
          "name": "_contentID",
          "type": "uint256"
        }
      ],
      "payable": false,
      "stateMutability": "nonpayable",
      "type": "constructor"
    },
    {
      "anonymous": false,
      "inputs": [
        {
          "indexed": false,
          "name": "status",
          "type": "uint8"
        }
      ],
      "name": "BallotStatusUpdated",
      "type": "event"
    },
    {
      "anonymous": false,
      "inputs": [
        {
          "indexed": false,
          "name": "nextRoundAt",
          "type": "uint256"
        }
      ],
      "name": "BallotRoundStarted",
      "type": "event"
    },
    {
      "anonymous": false,
      "inputs": [
        {
          "indexed": false,
          "name": "ballotLength",
          "type": "uint8"
        }
      ],
      "name": "BallotAdded",
      "type": "event"
    }
  ],
  "bytecode": "0x608060405234801561001057600080fd5b5060405160208061127e83398101806040528101908080519060200190929190505050603c808161ffff16101515156100d7576040517f08c379a000000000000000000000000000000000000000000000000000000000815260040180806020018281038252602a8152602001807f726f756e64506572696f645365636f6e6473206d757374206265206c6172676581526020017f72207468616e2036302e0000000000000000000000000000000000000000000081525060400191505060405180910390fd5b6000600860016101000a81548160ff021916908360028111156100f657fe5b02179055506000600860006101000a81548160ff0219169083600181111561011a57fe5b02179055508061ffff1642016000819055507f315bca950f45382360dc3812a695b19c859bc9a15c58362210bca23c7300ba336000546040518082815260200191505060405180910390a1508060098190555042600a8190555042600b81905550506110f38061018b6000396000f3006080604052600436106100af576000357c0100000000000000000000000000000000000000000000000000000000900463ffffffff1680630700037d146100b45780631b54b96a1461010b578063312150f814610122578063572005e41461014d5780635db7dd80146101865780637519ab50146101f357806375bdde4e1461021e578063bfd981fd14610249578063cd776e2b14610287578063cf09e0d0146102c0578063e772b0a2146102eb575b600080fd5b3480156100c057600080fd5b506100f5600480360381019080803573ffffffffffffffffffffffffffffffffffffffff169060200190929190505050610361565b6040518082815260200191505060405180910390f35b34801561011757600080fd5b50610120610379565b005b34801561012e57600080fd5b5061013761064f565b6040518082815260200191505060405180910390f35b34801561015957600080fd5b50610162610655565b6040518082600281111561017257fe5b60ff16815260200191505060405180910390f35b34801561019257600080fd5b506101b160048036038101908080359060200190929190505050610668565b604051808273ffffffffffffffffffffffffffffffffffffffff1673ffffffffffffffffffffffffffffffffffffffff16815260200191505060405180910390f35b3480156101ff57600080fd5b506102086106a6565b6040518082815260200191505060405180910390f35b34801561022a57600080fd5b506102336106ac565b6040518082815260200191505060405180910390f35b34801561025557600080fd5b5061025e6106b2565b604051808360ff1660ff1681526020018260ff1660ff1681526020019250505060405180910390f35b34801561029357600080fd5b5061029c6106de565b604051808260018111156102ac57fe5b60ff16815260200191505060405180910390f35b3480156102cc57600080fd5b506102d56106f1565b6040518082815260200191505060405180910390f35b61035f600480360381019080803560ff169060200190929190803560ff169060200190929190803590602001908201803590602001908080601f01602080910402602001604051908101604052809392919081815260200183838082843782019150505050505091929192905050506106f7565b005b60056020528060005260406000206000915090505481565b6000544211801561038f57506003600680549050115b1561064d5761042a6006805480602002602001604051908101604052809291908181526020016000905b82821015610421578382906000526020600020016040805190810160405290816000820160009054906101000a900460ff1660ff1660ff1681526020016000820160019054906101000a900460ff1660ff1660ff1681525050815260200190600101906103b9565b50505050610b21565b600760008201518160000160006101000a81548160ff021916908360ff16021790555060208201518160000160016101000a81548160ff021916908360ff16021790555090505061054760076040805190810160405290816000820160009054906101000a900460ff1660ff1660ff1681526020016000820160019054906101000a900460ff1660ff1660ff1681525050600180548060200260200160405190810160405280929190818152602001828054801561053d57602002820191906000526020600020905b8160009054906101000a900473ffffffffffffffffffffffffffffffffffffffff1673ffffffffffffffffffffffffffffffffffffffff16815260200190600101908083116104f3575b5050505050610c0a565b6002600760000160009054906101000a900460ff1660ff1611801561058157506002600760000160019054906101000a900460ff1660ff16115b156105af576001600860016101000a81548160ff021916908360028111156105a557fe5b02179055506105d4565b6002600860016101000a81548160ff021916908360028111156105ce57fe5b02179055505b6001600860006101000a81548160ff021916908360018111156105f357fe5b02179055507f6088f5fe1ab27f90870fe89876ee9c7b91cd376854377f00fc7adb74f71a23d6600860009054906101000a900460ff166040518082600181111561063957fe5b60ff16815260200191505060405180910390a15b565b60095481565b600860019054906101000a900460ff1681565b60028181548110151561067757fe5b906000526020600020016000915054906101000a900473ffffffffffffffffffffffffffffffffffffffff1681565b600b5481565b60005481565b60078060000160009054906101000a900460ff16908060000160019054906101000a900460ff16905082565b600860009054906101000a900460ff1681565b600a5481565b6106ff610fb3565b610707610fd3565b600360003373ffffffffffffffffffffffffffffffffffffffff1673ffffffffffffffffffffffffffffffffffffffff16815260200190815260200160002060009054906101000a900460ff161515156107ef576040517f08c379a00000000000000000000000000000000000000000000000000000000081526004018080602001828103825260278152602001807f4f6e6c79206f6e652d74696d6520746f20746f2063616c6c207468697320667581526020017f6e6374696f6e2e0000000000000000000000000000000000000000000000000081525060400191505060405180910390fd5b600a8560ff16111580156108075750600a8460ff1611155b15156108a1576040517f08c379a000000000000000000000000000000000000000000000000000000000815260040180806020018281038252602e8152602001807f5468652076616c7565206f6620656163682073636f7265206d7573742062652081526020017f6c6f776572207468616e2031302e00000000000000000000000000000000000081525060400191505060405180910390fd5b60013390806001815401808255809150509060018203906000526020600020016000909192909190916101000a81548173ffffffffffffffffffffffffffffffffffffffff021916908373ffffffffffffffffffffffffffffffffffffffff160217905550506001600360003373ffffffffffffffffffffffffffffffffffffffff1673ffffffffffffffffffffffffffffffffffffffff16815260200190815260200160002060006101000a81548160ff02191690831515021790555060408051908101604052808660ff1681526020018560ff16815250915060068290806001815401808255809150509060018203906000526020600020016000909192909190915060008201518160000160006101000a81548160ff021916908360ff16021790555060208201518160000160016101000a81548160ff021916908360ff16021790555050505060806040519081016040528083815260200134815260200184815260200142815250905080600460003373ffffffffffffffffffffffffffffffffffffffff1673ffffffffffffffffffffffffffffffffffffffff16815260200190815260200160002060008201518160000160008201518160000160006101000a81548160ff021916908360ff16021790555060208201518160000160016101000a81548160ff021916908360ff1602179055505050602082015181600101556040820151816002019080519060200190610ac2929190611002565b5060608201518160030155905050610ad8610379565b7f7ff9643fceb55a314bcb7f821cc07e976d050e0ac2840ffe0448719de5095938600680549050604051808260ff1660ff16815260200191505060405180910390a15050505050565b610b29610fb3565b600080600080600080610b3a610fb3565b600096506000955088519450600093505b8461ffff168461ffff161015610bb657888461ffff16815181101515610b6d57fe5b906020019060200201516000015160ff1687019650888461ffff16815181101515610b9457fe5b906020019060200201516020015160ff16860195508380600101945050610b4b565b8460010b8760010b811515610bc757fe5b0592508460010b8660010b811515610bdb57fe5b05915060408051908101604052808460ff1681526020018360ff16815250905080975050505050505050919050565b6000806000610c17610fd3565b60008060008088519750600096505b8761ffff16871015610e4a578887815181101515610c4057fe5b906020019060200201519550600460008773ffffffffffffffffffffffffffffffffffffffff1673ffffffffffffffffffffffffffffffffffffffff16815260200190815260200160002060806040519081016040529081600082016040805190810160405290816000820160009054906101000a900460ff1660ff1660ff1681526020016000820160019054906101000a900460ff1660ff1660ff1681525050815260200160018201548152602001600282018054600181600116156101000203166002900480601f016020809104026020016040519081016040528092919081815260200182805460018160011615610100020316600290048015610d885780601f10610d5d57610100808354040283529160200191610d88565b820191906000526020600020905b815481529060010190602001808311610d6b57829003601f168201915b505050505081526020016003820154815250509450896000015160ff1685600001516000015160ff1610158015610dd15750896020015160ff1685600001516020015160ff1610155b15610e3d5760028690806001815401808255809150509060018203906000526020600020016000909192909190916101000a81548173ffffffffffffffffffffffffffffffffffffffff021916908373ffffffffffffffffffffffffffffffffffffffff160217905550505b8680600101975050610c26565b3073ffffffffffffffffffffffffffffffffffffffff16319350600280549050925060008361ffff161115610fa7578261ffff1684811515610e8857fe5b049150600090505b8261ffff16811015610fa6578160056000600284815481101515610eb057fe5b9060005260206000200160009054906101000a900473ffffffffffffffffffffffffffffffffffffffff1673ffffffffffffffffffffffffffffffffffffffff1673ffffffffffffffffffffffffffffffffffffffff16815260200190815260200160002081905550600281815481101515610f2857fe5b9060005260206000200160009054906101000a900473ffffffffffffffffffffffffffffffffffffffff1673ffffffffffffffffffffffffffffffffffffffff166108fc839081150290604051600060405180830381858888f19350505050158015610f98573d6000803e3d6000fd5b508080600101915050610e90565b5b50505050505050505050565b6040805190810160405280600060ff168152602001600060ff1681525090565b60a060405190810160405280610fe7611082565b81526020016000815260200160608152602001600081525090565b828054600181600116156101000203166002900490600052602060002090601f016020900481019282601f1061104357805160ff1916838001178555611071565b82800160010185558215611071579182015b82811115611070578251825591602001919060010190611055565b5b50905061107e91906110a2565b5090565b6040805190810160405280600060ff168152602001600060ff1681525090565b6110c491905b808211156110c05760008160009055506001016110a8565b5090565b905600a165627a7a72305820d6b1bc40776b5315e13624f8d55121bb19c7fb64a878dcf601793cb3933c2d580029",
  "source": "pragma solidity ^0.4.24;\n\nimport \"./Ballotable.sol\";\n\n\ncontract BallotableContent is Ballotable(1 minutes) {\n    uint public contentID;\n    uint public createdAt;\n    uint public updatedAt;\n\n    constructor(\n        uint _contentID\n    ) public {\n        contentID = _contentID;\n        createdAt = now;\n        updatedAt = now;\n    }\n}\n",
  "sourcePath": "/Users/kenichi/Repository/ETHSF_streamfilter/channels/contracts/BallotableContent.sol",
  "compiler": {
    "name": "solc",
    "version": "0.4.24+commit.e67f0147.Linux.g++"
  },
  "schemaVersion": "3.0.0-beta.1",
  "updatedAt": "2018-10-07T03:13:14.190Z"
}