{
  "contractName": "BallotableContents",
  "abi": [
    {
      "constant": true,
      "inputs": [
        {
          "name": "",
          "type": "uint256"
        }
      ],
      "name": "contentsFinalizedStatus",
      "outputs": [
        {
          "name": "",
          "type": "bool"
        }
      ],
      "payable": false,
      "stateMutability": "view",
      "type": "function"
    },
    {
      "constant": true,
      "inputs": [
        {
          "name": "",
          "type": "uint256"
        }
      ],
      "name": "contents",
      "outputs": [
        {
          "name": "accuracyScore",
          "type": "uint8"
        },
        {
          "name": "status",
          "type": "uint8"
        },
        {
          "name": "ballotCount",
          "type": "uint16"
        },
        {
          "name": "stakedAmount",
          "type": "uint256"
        },
        {
          "name": "closeAt",
          "type": "uint256"
        }
      ],
      "payable": false,
      "stateMutability": "view",
      "type": "function"
    },
    {
      "constant": true,
      "inputs": [
        {
          "name": "contentID",
          "type": "uint256"
        }
      ],
      "name": "getBallots",
      "outputs": [
        {
          "components": [
            {
              "components": [
                {
                  "name": "accuracy",
                  "type": "uint8"
                },
                {
                  "name": "relevant",
                  "type": "uint8"
                }
              ],
              "name": "evaluationScore",
              "type": "tuple"
            },
            {
              "name": "stakingAmount",
              "type": "uint256"
            },
            {
              "name": "player",
              "type": "address"
            },
            {
              "name": "createdAt",
              "type": "uint256"
            }
          ],
          "name": "",
          "type": "tuple[]"
        }
      ],
      "payable": false,
      "stateMutability": "view",
      "type": "function"
    },
    {
      "constant": true,
      "inputs": [
        {
          "name": "contentID",
          "type": "uint256"
        }
      ],
      "name": "getAccuracyScore",
      "outputs": [
        {
          "name": "",
          "type": "uint8"
        }
      ],
      "payable": false,
      "stateMutability": "view",
      "type": "function"
    },
    {
      "constant": true,
      "inputs": [
        {
          "name": "contentID",
          "type": "uint256"
        }
      ],
      "name": "getStakedAmount",
      "outputs": [
        {
          "name": "",
          "type": "uint256"
        }
      ],
      "payable": false,
      "stateMutability": "view",
      "type": "function"
    },
    {
      "constant": true,
      "inputs": [
        {
          "name": "contentID",
          "type": "uint256"
        }
      ],
      "name": "getBallotCount",
      "outputs": [
        {
          "name": "",
          "type": "uint256"
        }
      ],
      "payable": false,
      "stateMutability": "view",
      "type": "function"
    },
    {
      "constant": true,
      "inputs": [
        {
          "name": "contentID",
          "type": "uint256"
        }
      ],
      "name": "getRewardWonPlayers",
      "outputs": [
        {
          "name": "",
          "type": "address[]"
        }
      ],
      "payable": false,
      "stateMutability": "view",
      "type": "function"
    },
    {
      "constant": true,
      "inputs": [
        {
          "name": "contentID",
          "type": "uint256"
        }
      ],
      "name": "getCloseAt",
      "outputs": [
        {
          "name": "",
          "type": "uint256"
        }
      ],
      "payable": false,
      "stateMutability": "view",
      "type": "function"
    },
    {
      "constant": true,
      "inputs": [
        {
          "name": "contentID",
          "type": "uint256"
        }
      ],
      "name": "isClosed",
      "outputs": [
        {
          "name": "",
          "type": "bool"
        }
      ],
      "payable": false,
      "stateMutability": "view",
      "type": "function"
    },
    {
      "constant": false,
      "inputs": [
        {
          "name": "contentID",
          "type": "uint256"
        },
        {
          "name": "accuracy",
          "type": "uint8"
        },
        {
          "name": "relevant",
          "type": "uint8"
        },
        {
          "name": "timestamp",
          "type": "uint256"
        }
      ],
      "name": "ballot",
      "outputs": [],
      "payable": true,
      "stateMutability": "payable",
      "type": "function"
    },
    {
      "constant": false,
      "inputs": [
        {
          "name": "contentID",
          "type": "uint256"
        }
      ],
      "name": "calcScoreAndSendRewardsIfNeeded",
      "outputs": [],
      "payable": false,
      "stateMutability": "nonpayable",
      "type": "function"
    }
  ],
  "bytecode": "0x608060405234801561001057600080fd5b50611aba806100206000396000f3006080604052600436106100af576000357c0100000000000000000000000000000000000000000000000000000000900463ffffffff1680635a5392be146100b457806399897630146100f15780639a008e891461012e5780639affc0751461016b578063aa25534c146101a8578063b5ecf912146101c4578063d5c78a2814610205578063e5b4afeb14610242578063e8a9f65e1461027f578063ef4a6192146102bc578063fb7344d0146102e5575b600080fd5b3480156100c057600080fd5b506100db60048036036100d691908101906115a4565b610322565b6040516100e8919061191d565b60405180910390f35b3480156100fd57600080fd5b50610118600480360361011391908101906115a4565b610342565b60405161012591906118c2565b60405180910390f35b34801561013a57600080fd5b50610155600480360361015091908101906115a4565b610362565b604051610162919061191d565b60405180910390f35b34801561017757600080fd5b50610192600480360361018d91908101906115a4565b610394565b60405161019f919061191d565b60405180910390f35b6101c260048036036101bd91908101906115cd565b6103b4565b005b3480156101d057600080fd5b506101eb60048036036101e691908101906115a4565b610a80565b6040516101fc959493929190611953565b60405180910390f35b34801561021157600080fd5b5061022c600480360361022791908101906115a4565b610ade565b60405161023991906118c2565b60405180910390f35b34801561024e57600080fd5b50610269600480360361026491908101906115a4565b610bc6565b604051610276919061187e565b60405180910390f35b34801561028b57600080fd5b506102a660048036036102a191908101906115a4565b610c67565b6040516102b39190611938565b60405180910390f35b3480156102c857600080fd5b506102e360048036036102de91908101906115a4565b610c94565b005b3480156102f157600080fd5b5061030c600480360361030791908101906115a4565b610ef7565b60405161031991906118a0565b60405180910390f35b600060066000838152602001908152602001600020600101549050919050565b60056020528060005260406000206000915054906101000a900460ff1681565b60006006600083815260200190815260200160002060000160029054906101000a900461ffff1661ffff169050919050565b600060066000838152602001908152602001600020600201549050919050565b6103bc611420565b6103c4611440565b60006103ce611485565b6000886005600082815260200190815260200160002060009054906101000a900460ff16151515610434576040517f08c379a000000000000000000000000000000000000000000000000000000000815260040161042b906118dd565b60405180910390fd5b896001600082815260200190815260200160002060003373ffffffffffffffffffffffffffffffffffffffff1673ffffffffffffffffffffffffffffffffffffffff16815260200190815260200160002060009054906101000a900460ff161515156104d5576040517f08c379a00000000000000000000000000000000000000000000000000000000081526004016104cc906118fd565b60405180910390fd5b60018060008d815260200190815260200160002060003373ffffffffffffffffffffffffffffffffffffffff1673ffffffffffffffffffffffffffffffffffffffff16815260200190815260200160002060006101000a81548160ff02191690831515021790555060408051908101604052808b60ff1681526020018a60ff1681525096506080604051908101604052808881526020013481526020013373ffffffffffffffffffffffffffffffffffffffff1681526020018981525095506000808c8152602001908152602001600020869080600181540180825580915050906001820390600052602060002090600402016000909192909190915060008201518160000160008201518160000160006101000a81548160ff021916908360ff16021790555060208201518160000160016101000a81548160ff021916908360ff16021790555050506020820151816001015560408201518160020160006101000a81548173ffffffffffffffffffffffffffffffffffffffff021916908373ffffffffffffffffffffffffffffffffffffffff16021790555060608201518160030155505050600460008c81526020019081526020016000208790806001815401808255809150509060018203906000526020600020016000909192909190915060008201518160000160006101000a81548160ff021916908360ff16021790555060208201518160000160016101000a81548160ff021916908360ff1602179055505050506000600660008d815260200190815260200160002060000160029054906101000a900461ffff1661ffff1614151561081557600660008c8152602001908152602001600020945060018560000160028282829054906101000a900461ffff160192506101000a81548161ffff021916908361ffff1602179055503485600101600082825401925050819055506107928b610ade565b151561081057600260008c81526020019081526020016000203390806001815401808255809150509060018203906000526020600020016000909192909190916101000a81548173ffffffffffffffffffffffffffffffffffffffff021916908373ffffffffffffffffffffffffffffffffffffffff160217905550505b610968565b60a060405190810160405280600060ff1681526020016000600181111561083857fe5b8152602001600161ffff1681526020013481526020016104b04201815250935083600660008d815260200190815260200160002060008201518160000160006101000a81548160ff021916908360ff16021790555060208201518160000160016101000a81548160ff021916908360018111156108b157fe5b021790555060408201518160000160026101000a81548161ffff021916908361ffff1602179055506060820151816001015560808201518160020155905050600260008c81526020019081526020016000203390806001815401808255809150509060018203906000526020600020016000909192909190916101000a81548173ffffffffffffffffffffffffffffffffffffffff021916908373ffffffffffffffffffffffffffffffffffffffff160217905550505b600660008c81526020019081526020016000209250858360030160003373ffffffffffffffffffffffffffffffffffffffff1673ffffffffffffffffffffffffffffffffffffffff16815260200190815260200160002060008201518160000160008201518160000160006101000a81548160ff021916908360ff16021790555060208201518160000160016101000a81548160ff021916908360ff16021790555050506020820151816001015560408201518160020160006101000a81548173ffffffffffffffffffffffffffffffffffffffff021916908373ffffffffffffffffffffffffffffffffffffffff16021790555060608201518160030155905050610a738b610c94565b5050505050505050505050565b60066020528060005260406000206000915090508060000160009054906101000a900460ff16908060000160019054906101000a900460ff16908060000160029054906101000a900461ffff16908060010154908060020154905085565b6000610ae8611485565b6005600084815260200190815260200160002060009054906101000a900460ff1615610b175760019150610bc0565b6006600084815260200190815260200160002060a060405190810160405290816000820160009054906101000a900460ff1660ff1660ff1681526020016000820160019054906101000a900460ff166001811115610b7157fe5b6001811115610b7c57fe5b81526020016000820160029054906101000a900461ffff1661ffff1661ffff1681526020016001820154815260200160028201548152505090508060800151421191505b50919050565b606060036000838152602001908152602001600020805480602002602001604051908101604052809291908181526020018280548015610c5b57602002820191906000526020600020905b8160009054906101000a900473ffffffffffffffffffffffffffffffffffffffff1673ffffffffffffffffffffffffffffffffffffffff1681526020019060010190808311610c11575b50505050509050919050565b60006006600083815260200190815260200160002060000160009054906101000a900460ff169050919050565b6060610c9e611420565b60006060846005600082815260200190815260200160002060009054906101000a900460ff16151515610d06576040517f08c379a0000000000000000000000000000000000000000000000000000000008152600401610cfd906118dd565b60405180910390fd5b60046000878152602001908152602001600020805480602002602001604051908101604052809291908181526020016000905b82821015610da1578382906000526020600020016040805190810160405290816000820160009054906101000a900460ff1660ff1660ff1681526020016000820160019054906101000a900460ff1660ff1660ff168152505081526020019060010190610d39565b505050509450610db085611021565b935060066000878152602001908152602001600020925083600001518360000160006101000a81548160ff021916908360ff160217905550610df186610ade565b8015610e14575060038360000160029054906101000a900461ffff1661ffff1610155b80610e365750600a8360000160029054906101000a900461ffff1661ffff1610155b15610eee5760026000878152602001908152602001600020805480602002602001604051908101604052809291908181526020018280548015610ece57602002820191906000526020600020905b8160009054906101000a900473ffffffffffffffffffffffffffffffffffffffff1673ffffffffffffffffffffffffffffffffffffffff1681526020019060010190808311610e84575b50505050509150610ee086858461110a565b610ee9866113f1565b610eef565b5b505050505050565b6060600080838152602001908152602001600020805480602002602001604051908101604052809291908181526020016000905b82821015611016578382906000526020600020906004020160806040519081016040529081600082016040805190810160405290816000820160009054906101000a900460ff1660ff1660ff1681526020016000820160019054906101000a900460ff1660ff1660ff16815250508152602001600182015481526020016002820160009054906101000a900473ffffffffffffffffffffffffffffffffffffffff1673ffffffffffffffffffffffffffffffffffffffff1673ffffffffffffffffffffffffffffffffffffffff16815260200160038201548152505081526020019060010190610f2b565b505050509050919050565b611029611420565b60008060008060008061103a611420565b600096506000955088519450600093505b8461ffff168461ffff1610156110b657888461ffff1681518110151561106d57fe5b906020019060200201516000015160ff1687019650888461ffff1681518110151561109457fe5b906020019060200201516020015160ff1686019550838060010194505061104b565b8460010b8760010b8115156110c757fe5b0592508460010b8660010b8115156110db57fe5b05915060408051908101604052808460ff1681526020018360ff16815250905080975050505050505050919050565b600080600080600061111a611440565b6000806000600660008d8152602001908152602001600020985089519650600095505b8661ffff168610156112f857898681518110151561115757fe5b9060200190602002015194508860030160008673ffffffffffffffffffffffffffffffffffffffff1673ffffffffffffffffffffffffffffffffffffffff16815260200190815260200160002060806040519081016040529081600082016040805190810160405290816000820160009054906101000a900460ff1660ff1660ff1681526020016000820160019054906101000a900460ff1660ff1660ff16815250508152602001600182015481526020016002820160009054906101000a900473ffffffffffffffffffffffffffffffffffffffff1673ffffffffffffffffffffffffffffffffffffffff1673ffffffffffffffffffffffffffffffffffffffff16815260200160038201548152505093508a6000015160ff1684600001516000015160ff161015156112eb57878590806001815401808255809150509060018203906000526020600020016000909192909190916101000a81548173ffffffffffffffffffffffffffffffffffffffff021916908373ffffffffffffffffffffffffffffffffffffffff160217905550505b858060010196505061113d565b87600360008e815260200190815260200160002090805461131a9291906114c7565b508780549050925060008361ffff1611156113e3578261ffff16896001015481151561134257fe5b049150600090505b8261ffff168110156113e257878181548110151561136457fe5b9060005260206000200160009054906101000a900473ffffffffffffffffffffffffffffffffffffffff1673ffffffffffffffffffffffffffffffffffffffff166108fc839081150290604051600060405180830381858888f193505050501580156113d4573d6000803e3d6000fd5b50808060010191505061134a565b5b505050505050505050505050565b60016005600083815260200190815260200160002060006101000a81548160ff02191690831515021790555050565b6040805190810160405280600060ff168152602001600060ff1681525090565b60a060405190810160405280611454611519565b815260200160008152602001600073ffffffffffffffffffffffffffffffffffffffff168152602001600081525090565b60a060405190810160405280600060ff168152602001600060018111156114a857fe5b8152602001600061ffff16815260200160008152602001600081525090565b8280548282559060005260206000209081019282156115085760005260206000209182015b828111156115075782548255916001019190600101906114ec565b5b5090506115159190611539565b5090565b6040805190810160405280600060ff168152602001600060ff1681525090565b61157991905b8082111561157557600081816101000a81549073ffffffffffffffffffffffffffffffffffffffff02191690555060010161153f565b5090565b90565b60006115888235611a57565b905092915050565b600061159c8235611a61565b905092915050565b6000602082840312156115b657600080fd5b60006115c48482850161157c565b91505092915050565b600080600080608085870312156115e357600080fd5b60006115f18782880161157c565b945050602061160287828801611590565b935050604061161387828801611590565b92505060606116248782880161157c565b91505092959194509250565b611639816119f0565b82525050565b600061164a826119c0565b80845260208401935061165c836119a6565b60005b8281101561168e57611672868351611630565b61167b826119d6565b915060208601955060018101905061165f565b50849250505092915050565b60006116a5826119cb565b8084526020840193506116b7836119b3565b60005b828110156116e9576116cd8683516117cd565b6116d6826119e3565b915060a0860195506001810190506116ba565b50849250505092915050565b6116fe81611a10565b82525050565b61170d81611a6e565b82525050565b6000602282527f5468697320636f6e74656e7420697320616c72656164792066696e616c697a6560208301527f642e0000000000000000000000000000000000000000000000000000000000006040830152606082019050919050565b6000602782527f4f6e6c79206f6e652d74696d6520746f20746f2063616c6c207468697320667560208301527f6e6374696f6e2e000000000000000000000000000000000000000000000000006040830152606082019050919050565b60a0820160008201516117e36000850182611822565b5060208201516117f66040850182611860565b5060408201516118096060850182611630565b50606082015161181c6080850182611860565b50505050565b604082016000820151611838600085018261186f565b50602082015161184b602085018261186f565b50505050565b61185a81611a32565b82525050565b61186981611a40565b82525050565b61187881611a4a565b82525050565b60006020820190508181036000830152611898818461163f565b905092915050565b600060208201905081810360008301526118ba818461169a565b905092915050565b60006020820190506118d760008301846116f5565b92915050565b600060208201905081810360008301526118f681611713565b9050919050565b6000602082019050818103600083015261191681611770565b9050919050565b60006020820190506119326000830184611860565b92915050565b600060208201905061194d600083018461186f565b92915050565b600060a082019050611968600083018861186f565b6119756020830187611704565b6119826040830186611851565b61198f6060830185611860565b61199c6080830184611860565b9695505050505050565b6000602082019050919050565b6000602082019050919050565b600081519050919050565b600081519050919050565b6000602082019050919050565b6000602082019050919050565b600073ffffffffffffffffffffffffffffffffffffffff82169050919050565b60008115159050919050565b6000600282101515611a2a57fe5b819050919050565b600061ffff82169050919050565b6000819050919050565b600060ff82169050919050565b6000819050919050565b600060ff82169050919050565b6000611a7982611a1c565b90509190505600a265627a7a72305820ebce2b0fff9975abee40890215c94b6d5ce4fdade55a6319c8f34eaf7cea019e6c6578706572696d656e74616cf50037",
  "source": "pragma solidity ^0.4.24;\npragma experimental ABIEncoderV2;\n\n\ncontract BallotableContents {\n\n    struct Ballot {\n        EvaluationScore evaluationScore;\n        uint stakingAmount;     // [wei]\n        address player;\n        uint createdAt;\n    }\n\n    struct EvaluationScore {\n        uint8 accuracy;\n        uint8 relevant;\n    }\n\n    enum ContentStatus {\n        Live,\n        Closed\n    }\n\n    struct Content {\n        uint8 accuracyScore;\n        ContentStatus status;\n        uint16 ballotCount;\n        uint stakedAmount;   // [wei]\n        uint closeAt;\n        mapping ( address => Ballot) ballots;\n    }\n\n    struct Reward {\n        address targetPlayer;\n        uint amount;    // [wei]\n    }\n\n    mapping (uint => Ballot[]) private contentsWithBallot;\n    mapping (uint => mapping (address => bool)) private playersForExists;\n    mapping (uint => address[]) private rewardCandidatePlayers;\n    mapping (uint => address[]) private rewardWonPlayers;\n    mapping (uint => EvaluationScore[]) private contentsWithEvaluationScore;\n    mapping (uint => bool) public contentsFinalizedStatus;\n    mapping (uint => Content) public contents;\n\n    modifier isOpen(uint contentID) {\n        require(\n            !contentsFinalizedStatus[contentID],\n            \"This content is already finalized.\"\n        );\n        _;\n    }\n\n    modifier onetimeOnly(uint contentID) {\n        require(\n            !playersForExists[contentID][msg.sender],\n            \"Only one-time to to call this function.\"\n        );\n        _;\n    }\n\n    function getBallots(\n        uint contentID\n        ) public view returns(Ballot[]) {\n        return contentsWithBallot[contentID];\n    }\n\n    function getAccuracyScore(uint contentID) public view returns(uint8) {\n        return contents[contentID].accuracyScore;\n    }\n\n    function getStakedAmount(uint contentID) public view returns(uint) {\n        return contents[contentID].stakedAmount;\n    }\n\n    function getBallotCount(uint contentID) public view returns(uint) {\n        return contents[contentID].ballotCount;\n    }\n    \n    function getRewardWonPlayers(uint contentID) public view returns(address[]) {\n        return rewardWonPlayers[contentID];\n    }\n\n    function getCloseAt(uint contentID) public view returns(uint) {\n        return contents[contentID].closeAt;\n    }\n\n    function isClosed(uint contentID) public view returns(bool) {\n        if (contentsFinalizedStatus[contentID]) {\n            return true;\n        } else {\n            Content memory _content = contents[contentID];\n            return now > _content.closeAt;\n        }\n    }\n\n    function ballot(\n        uint contentID, uint8 accuracy, uint8 relevant, uint timestamp\n        ) public payable \n        isOpen(contentID)\n        onetimeOnly(contentID)\n        {\n\n        playersForExists[contentID][msg.sender] = true;\n\n        EvaluationScore memory _score = EvaluationScore({\n            accuracy: accuracy,\n            relevant: relevant\n        });\n\n        Ballot memory _ballot = Ballot({\n            evaluationScore: _score,\n            stakingAmount: msg.value,\n            player: msg.sender,\n            createdAt: timestamp\n        });\n\n        contentsWithBallot[contentID].push(_ballot);\n        contentsWithEvaluationScore[contentID].push(_score);\n        \n        if (contents[contentID].ballotCount != 0) {\n            Content storage _content = contents[contentID];\n            _content.ballotCount += 1;\n            _content.stakedAmount += msg.value;\n            \n\n            if (!isClosed(contentID)) {\n                rewardCandidatePlayers[contentID].push(msg.sender);\n            }\n        } else {\n            Content memory _contentNew = Content({\n                accuracyScore: 0,\n                status: ContentStatus.Live,\n                ballotCount: 1,\n                stakedAmount: msg.value,\n                closeAt: now + 20 minutes\n            });\n            contents[contentID] = _contentNew;\n            rewardCandidatePlayers[contentID].push(msg.sender);\n        }\n        \n        Content storage __content = contents[contentID];\n        __content.ballots[msg.sender] = _ballot;\n\n        calcScoreAndSendRewardsIfNeeded(contentID);\n    }\n\n    function calcScoreAndSendRewardsIfNeeded(uint contentID) public isOpen(contentID) {\n        EvaluationScore[] memory _evaluations = contentsWithEvaluationScore[contentID];\n        EvaluationScore memory _evaluatedScore = calculateEvaluatedScore(_evaluations);\n\n        Content storage _content = contents[contentID];\n        _content.accuracyScore = _evaluatedScore.accuracy;\n\n        if ((isClosed(contentID) && _content.ballotCount >= 3) || _content.ballotCount >= 10) {\n            address[] memory _rewardCandidatePlayers = rewardCandidatePlayers[contentID];\n            electContributorsAndCalcRewardsAndSend(\n                contentID,\n                _evaluatedScore, \n                _rewardCandidatePlayers);\n            \n            closeContent(contentID);\n        } else {\n            // TODO extend time?\n        }\n    }\n\n    function closeContent(uint contentID) internal {\n        contentsFinalizedStatus[contentID] = true;\n    }\n\n    function electContributorsAndCalcRewardsAndSend(\n        uint contentID,\n        EvaluationScore _evaluatedScore,\n        address[] _candidatePlayers\n        ) internal {\n        \n        Content storage _content = contents[contentID];\n        address[] storage _rewardWonPlayers;\n\n        uint16 _candidatePlayerslength = uint16(_candidatePlayers.length);\n        for (uint i=0; i < _candidatePlayerslength; i++) {\n            address _player = _candidatePlayers[i];\n            Ballot memory _ballot = _content.ballots[_player];\n            if (_ballot.evaluationScore.accuracy >= _evaluatedScore.accuracy) {\n                _rewardWonPlayers.push(_player);\n            }\n        }\n\n        rewardWonPlayers[contentID] = _rewardWonPlayers;\n\n        uint16 _rewardWonPlayerslength = uint16(_rewardWonPlayers.length);\n        if (_rewardWonPlayerslength > 0) {\n            uint rewardAmountForEach = _content.stakedAmount / _rewardWonPlayerslength;\n            for (uint j=0; j < _rewardWonPlayerslength; j++) {\n                // Send reward.\n                _rewardWonPlayers[j].transfer(rewardAmountForEach);\n            }\n        }\n    }\n\n    function calculateEvaluatedScore(\n        EvaluationScore[] _evaluations) \n        internal pure returns(EvaluationScore) \n        {\n        int16 totalOfAccuracyScore = 0;\n        int16 totalOfRelevantScore = 0;\n        uint16 length = uint16(_evaluations.length);\n        for (uint16 i=0; i < length; i++) {\n            totalOfAccuracyScore += _evaluations[i].accuracy;\n            totalOfRelevantScore += _evaluations[i].relevant;\n        }\n        uint8 averageAccuracyScore = uint8(totalOfAccuracyScore / int16(length));\n        uint8 averageRelevantScore = uint8(totalOfRelevantScore / int16(length));\n        \n        EvaluationScore memory _evaluatedScore = EvaluationScore({\n            accuracy: averageAccuracyScore,\n            relevant: averageRelevantScore\n        });\n        return _evaluatedScore;\n    }\n}\n \n",
  "sourcePath": "/Users/kenichi/Repository/ETHSF_streamfilter/channels/contracts/BallotableContents.sol",
  "compiler": {
    "name": "solc",
    "version": "0.4.24+commit.e67f0147.Linux.g++"
  },
  "schemaVersion": "3.0.0-beta.1",
  "updatedAt": "2018-10-07T02:11:02.218Z"
}