{
  "contractName": "Ballotable",
  "abi": [
    {
      "constant": true,
      "inputs": [
        {
          "name": "",
          "type": "address"
        }
      ],
      "name": "rewards",
      "outputs": [
        {
          "name": "",
          "type": "uint256"
        }
      ],
      "payable": false,
      "stateMutability": "view",
      "type": "function"
    },
    {
      "constant": true,
      "inputs": [],
      "name": "classifiedStatus",
      "outputs": [
        {
          "name": "",
          "type": "uint8"
        }
      ],
      "payable": false,
      "stateMutability": "view",
      "type": "function"
    },
    {
      "constant": true,
      "inputs": [
        {
          "name": "",
          "type": "uint256"
        }
      ],
      "name": "electedPlayers",
      "outputs": [
        {
          "name": "",
          "type": "address"
        }
      ],
      "payable": false,
      "stateMutability": "view",
      "type": "function"
    },
    {
      "constant": true,
      "inputs": [],
      "name": "nextRoundAt",
      "outputs": [
        {
          "name": "",
          "type": "uint256"
        }
      ],
      "payable": false,
      "stateMutability": "view",
      "type": "function"
    },
    {
      "constant": true,
      "inputs": [],
      "name": "evaluatedScore",
      "outputs": [
        {
          "name": "accuracyScore",
          "type": "uint8"
        },
        {
          "name": "relevantScore",
          "type": "uint8"
        }
      ],
      "payable": false,
      "stateMutability": "view",
      "type": "function"
    },
    {
      "constant": true,
      "inputs": [],
      "name": "ballotStatus",
      "outputs": [
        {
          "name": "",
          "type": "uint8"
        }
      ],
      "payable": false,
      "stateMutability": "view",
      "type": "function"
    },
    {
      "inputs": [
        {
          "name": "roundPeriodSeconds",
          "type": "uint16"
        }
      ],
      "payable": false,
      "stateMutability": "nonpayable",
      "type": "constructor"
    },
    {
      "anonymous": false,
      "inputs": [
        {
          "indexed": false,
          "name": "status",
          "type": "uint8"
        }
      ],
      "name": "BallotStatusUpdated",
      "type": "event"
    },
    {
      "anonymous": false,
      "inputs": [
        {
          "indexed": false,
          "name": "nextRoundAt",
          "type": "uint256"
        }
      ],
      "name": "BallotRoundStarted",
      "type": "event"
    },
    {
      "anonymous": false,
      "inputs": [
        {
          "indexed": false,
          "name": "ballotLength",
          "type": "uint8"
        }
      ],
      "name": "BallotAdded",
      "type": "event"
    },
    {
      "constant": false,
      "inputs": [
        {
          "name": "accuracyScore",
          "type": "uint8"
        },
        {
          "name": "relevantScore",
          "type": "uint8"
        },
        {
          "name": "message",
          "type": "string"
        }
      ],
      "name": "ballot",
      "outputs": [],
      "payable": true,
      "stateMutability": "payable",
      "type": "function"
    },
    {
      "constant": false,
      "inputs": [],
      "name": "finalizationIfNeeded",
      "outputs": [],
      "payable": false,
      "stateMutability": "nonpayable",
      "type": "function"
    }
  ],
  "bytecode": "0x608060405234801561001057600080fd5b506040516020806111b383398101806040528101908080519060200190929190505050603c8161ffff16101515156100d6576040517f08c379a000000000000000000000000000000000000000000000000000000000815260040180806020018281038252602a8152602001807f726f756e64506572696f645365636f6e6473206d757374206265206c6172676581526020017f72207468616e2036302e0000000000000000000000000000000000000000000081525060400191505060405180910390fd5b6000600860016101000a81548160ff021916908360028111156100f557fe5b02179055506000600860006101000a81548160ff0219169083600181111561011957fe5b02179055508061ffff1642016000819055507f315bca950f45382360dc3812a695b19c859bc9a15c58362210bca23c7300ba336000546040518082815260200191505060405180910390a15061103f806101746000396000f30060806040526004361061008e576000357c0100000000000000000000000000000000000000000000000000000000900463ffffffff1680630700037d146100935780631b54b96a146100ea578063572005e4146101015780635db7dd801461013a57806375bdde4e146101a7578063bfd981fd146101d2578063cd776e2b14610210578063e772b0a214610249575b600080fd5b34801561009f57600080fd5b506100d4600480360381019080803573ffffffffffffffffffffffffffffffffffffffff1690602001909291905050506102bf565b6040518082815260200191505060405180910390f35b3480156100f657600080fd5b506100ff6102d7565b005b34801561010d57600080fd5b506101166105ad565b6040518082600281111561012657fe5b60ff16815260200191505060405180910390f35b34801561014657600080fd5b50610165600480360381019080803590602001909291905050506105c0565b604051808273ffffffffffffffffffffffffffffffffffffffff1673ffffffffffffffffffffffffffffffffffffffff16815260200191505060405180910390f35b3480156101b357600080fd5b506101bc6105fe565b6040518082815260200191505060405180910390f35b3480156101de57600080fd5b506101e7610604565b604051808360ff1660ff1681526020018260ff1660ff1681526020019250505060405180910390f35b34801561021c57600080fd5b50610225610630565b6040518082600181111561023557fe5b60ff16815260200191505060405180910390f35b6102bd600480360381019080803560ff169060200190929190803560ff169060200190929190803590602001908201803590602001908080601f0160208091040260200160405190810160405280939291908181526020018383808284378201915050505050509192919290505050610643565b005b60056020528060005260406000206000915090505481565b600054421180156102ed57506003600680549050115b156105ab576103886006805480602002602001604051908101604052809291908181526020016000905b8282101561037f578382906000526020600020016040805190810160405290816000820160009054906101000a900460ff1660ff1660ff1681526020016000820160019054906101000a900460ff1660ff1660ff168152505081526020019060010190610317565b50505050610a6d565b600760008201518160000160006101000a81548160ff021916908360ff16021790555060208201518160000160016101000a81548160ff021916908360ff1602179055509050506104a560076040805190810160405290816000820160009054906101000a900460ff1660ff1660ff1681526020016000820160019054906101000a900460ff1660ff1660ff1681525050600180548060200260200160405190810160405280929190818152602001828054801561049b57602002820191906000526020600020905b8160009054906101000a900473ffffffffffffffffffffffffffffffffffffffff1673ffffffffffffffffffffffffffffffffffffffff1681526020019060010190808311610451575b5050505050610b56565b6002600760000160009054906101000a900460ff1660ff161180156104df57506002600760000160019054906101000a900460ff1660ff16115b1561050d576001600860016101000a81548160ff0219169083600281111561050357fe5b0217905550610532565b6002600860016101000a81548160ff0219169083600281111561052c57fe5b02179055505b6001600860006101000a81548160ff0219169083600181111561055157fe5b02179055507f6088f5fe1ab27f90870fe89876ee9c7b91cd376854377f00fc7adb74f71a23d6600860009054906101000a900460ff166040518082600181111561059757fe5b60ff16815260200191505060405180910390a15b565b600860019054906101000a900460ff1681565b6002818154811015156105cf57fe5b906000526020600020016000915054906101000a900473ffffffffffffffffffffffffffffffffffffffff1681565b60005481565b60078060000160009054906101000a900460ff16908060000160019054906101000a900460ff16905082565b600860009054906101000a900460ff1681565b61064b610eff565b610653610f1f565b600360003373ffffffffffffffffffffffffffffffffffffffff1673ffffffffffffffffffffffffffffffffffffffff16815260200190815260200160002060009054906101000a900460ff1615151561073b576040517f08c379a00000000000000000000000000000000000000000000000000000000081526004018080602001828103825260278152602001807f4f6e6c79206f6e652d74696d6520746f20746f2063616c6c207468697320667581526020017f6e6374696f6e2e0000000000000000000000000000000000000000000000000081525060400191505060405180910390fd5b600a8560ff16111580156107535750600a8460ff1611155b15156107ed576040517f08c379a000000000000000000000000000000000000000000000000000000000815260040180806020018281038252602e8152602001807f5468652076616c7565206f6620656163682073636f7265206d7573742062652081526020017f6c6f776572207468616e2031302e00000000000000000000000000000000000081525060400191505060405180910390fd5b60013390806001815401808255809150509060018203906000526020600020016000909192909190916101000a81548173ffffffffffffffffffffffffffffffffffffffff021916908373ffffffffffffffffffffffffffffffffffffffff160217905550506001600360003373ffffffffffffffffffffffffffffffffffffffff1673ffffffffffffffffffffffffffffffffffffffff16815260200190815260200160002060006101000a81548160ff02191690831515021790555060408051908101604052808660ff1681526020018560ff16815250915060068290806001815401808255809150509060018203906000526020600020016000909192909190915060008201518160000160006101000a81548160ff021916908360ff16021790555060208201518160000160016101000a81548160ff021916908360ff16021790555050505060806040519081016040528083815260200134815260200184815260200142815250905080600460003373ffffffffffffffffffffffffffffffffffffffff1673ffffffffffffffffffffffffffffffffffffffff16815260200190815260200160002060008201518160000160008201518160000160006101000a81548160ff021916908360ff16021790555060208201518160000160016101000a81548160ff021916908360ff1602179055505050602082015181600101556040820151816002019080519060200190610a0e929190610f4e565b5060608201518160030155905050610a246102d7565b7f7ff9643fceb55a314bcb7f821cc07e976d050e0ac2840ffe0448719de5095938600680549050604051808260ff1660ff16815260200191505060405180910390a15050505050565b610a75610eff565b600080600080600080610a86610eff565b600096506000955088519450600093505b8461ffff168461ffff161015610b0257888461ffff16815181101515610ab957fe5b906020019060200201516000015160ff1687019650888461ffff16815181101515610ae057fe5b906020019060200201516020015160ff16860195508380600101945050610a97565b8460010b8760010b811515610b1357fe5b0592508460010b8660010b811515610b2757fe5b05915060408051908101604052808460ff1681526020018360ff16815250905080975050505050505050919050565b6000806000610b63610f1f565b60008060008088519750600096505b8761ffff16871015610d96578887815181101515610b8c57fe5b906020019060200201519550600460008773ffffffffffffffffffffffffffffffffffffffff1673ffffffffffffffffffffffffffffffffffffffff16815260200190815260200160002060806040519081016040529081600082016040805190810160405290816000820160009054906101000a900460ff1660ff1660ff1681526020016000820160019054906101000a900460ff1660ff1660ff1681525050815260200160018201548152602001600282018054600181600116156101000203166002900480601f016020809104026020016040519081016040528092919081815260200182805460018160011615610100020316600290048015610cd45780601f10610ca957610100808354040283529160200191610cd4565b820191906000526020600020905b815481529060010190602001808311610cb757829003601f168201915b505050505081526020016003820154815250509450896000015160ff1685600001516000015160ff1610158015610d1d5750896020015160ff1685600001516020015160ff1610155b15610d895760028690806001815401808255809150509060018203906000526020600020016000909192909190916101000a81548173ffffffffffffffffffffffffffffffffffffffff021916908373ffffffffffffffffffffffffffffffffffffffff160217905550505b8680600101975050610b72565b3073ffffffffffffffffffffffffffffffffffffffff16319350600280549050925060008361ffff161115610ef3578261ffff1684811515610dd457fe5b049150600090505b8261ffff16811015610ef2578160056000600284815481101515610dfc57fe5b9060005260206000200160009054906101000a900473ffffffffffffffffffffffffffffffffffffffff1673ffffffffffffffffffffffffffffffffffffffff1673ffffffffffffffffffffffffffffffffffffffff16815260200190815260200160002081905550600281815481101515610e7457fe5b9060005260206000200160009054906101000a900473ffffffffffffffffffffffffffffffffffffffff1673ffffffffffffffffffffffffffffffffffffffff166108fc839081150290604051600060405180830381858888f19350505050158015610ee4573d6000803e3d6000fd5b508080600101915050610ddc565b5b50505050505050505050565b6040805190810160405280600060ff168152602001600060ff1681525090565b60a060405190810160405280610f33610fce565b81526020016000815260200160608152602001600081525090565b828054600181600116156101000203166002900490600052602060002090601f016020900481019282601f10610f8f57805160ff1916838001178555610fbd565b82800160010185558215610fbd579182015b82811115610fbc578251825591602001919060010190610fa1565b5b509050610fca9190610fee565b5090565b6040805190810160405280600060ff168152602001600060ff1681525090565b61101091905b8082111561100c576000816000905550600101610ff4565b5090565b905600a165627a7a723058202c404749be13590e1ad23530978203bcb80a88e4bca45fbe95838f5dbc2bb1c70029",
  "source": "pragma solidity ^0.4.24;\n\n\ncontract Ballotable {\n    event BallotStatusUpdated(BallotStatus status);\n    event BallotRoundStarted(uint nextRoundAt);\n    event BallotAdded(uint8 ballotLength);\n\n    enum BallotStatus {\n        Open,\n        Closed\n    }\n\n    enum ClassifiedStatus {\n        None,\n        Good,\n        Bad\n    }\n\n    struct Ballot {\n        EvaluationScore evaluationScore;\n        uint stakingAmount;     // [wei]\n        string message;\n        uint createdAt;\n    }\n\n    struct EvaluationScore {\n        uint8 accuracyScore;\n        uint8 relevantScore;\n    }\n    \n    uint public nextRoundAt;\n    address[] private players;\n    address[] public electedPlayers;\n    mapping (address => bool) private playersForExists;\n    mapping (address => Ballot) private ballots;\n    mapping (address => uint) public rewards;\n    EvaluationScore[] private evaluations;\n    EvaluationScore public evaluatedScore;\n    BallotStatus public ballotStatus;\n    ClassifiedStatus public classifiedStatus;\n\n    modifier onetimeOnly {\n        require(\n            !playersForExists[msg.sender],\n            \"Only one-time to to call this function.\"\n        );\n        _;\n    }\n\n    constructor(uint16 roundPeriodSeconds) public {\n        require(\n            roundPeriodSeconds >= 1 minutes,\n            \"roundPeriodSeconds must be larger than 60.\"\n        );\n\n        classifiedStatus = ClassifiedStatus.None;\n        ballotStatus = BallotStatus.Open;\n        nextRoundAt = now + roundPeriodSeconds;\n        emit BallotRoundStarted(nextRoundAt);\n    }\n\n    function ballot(uint8 accuracyScore, uint8 relevantScore, string message) public onetimeOnly payable {\n        require(\n            accuracyScore <= 10 && relevantScore <= 10,\n            \"The value of each score must be lower than 10.\"\n        );\n\n        players.push(msg.sender);\n        playersForExists[msg.sender] = true;\n\n        EvaluationScore memory _evaluationScore = EvaluationScore({\n            accuracyScore: accuracyScore,\n            relevantScore: relevantScore\n        });\n        evaluations.push(_evaluationScore);\n\n        Ballot memory _ballot = Ballot({\n            evaluationScore: _evaluationScore,\n            stakingAmount: msg.value,\n            message: message,\n            createdAt: now\n        });\n        ballots[msg.sender] = _ballot;\n\n        finalizationIfNeeded();  // TODO execute this by event driven.\n\n        emit BallotAdded(uint8(evaluations.length));\n    }\n\n    function finalizationIfNeeded() public {\n        // TODO finalization condition.\n        if (now > nextRoundAt && evaluations.length > 3) {\n            evaluatedScore = calculateEvaluatedScore(evaluations);\n\n            electContributorsAndSendIfNeeded(evaluatedScore, players);\n\n            // TODO classification algo.\n            if (evaluatedScore.accuracyScore > 2 && evaluatedScore.relevantScore > 2) {\n                classifiedStatus = ClassifiedStatus.Good;\n            } else {\n                classifiedStatus = ClassifiedStatus.Bad;\n            }\n\n            ballotStatus = BallotStatus.Closed;\n            emit BallotStatusUpdated(ballotStatus);\n        }\n    }\n\n    function electContributorsAndSendIfNeeded(\n        EvaluationScore _evaluatedScore,\n        address[] _candidatePlayers\n        ) internal {\n\n        uint16 _candidatePlayerslength = uint16(_candidatePlayers.length);\n        for (uint i=0; i < _candidatePlayerslength; i++) {\n            address _player = _candidatePlayers[i];\n            Ballot memory _ballot = ballots[_player];\n            if (\n                _ballot.evaluationScore.accuracyScore >= _evaluatedScore.accuracyScore &&\n                _ballot.evaluationScore.relevantScore >= _evaluatedScore.relevantScore\n            ) {\n                electedPlayers.push(_player);\n            }\n        }\n\n        uint totalStakedAmount = address(this).balance;\n        uint16 _electedPlayerslength = uint16(electedPlayers.length);\n        if (_electedPlayerslength > 0) {\n            uint rewardAmountForEach = totalStakedAmount / _electedPlayerslength;\n            for (uint j=0; j < _electedPlayerslength; j++) {\n                rewards[electedPlayers[j]] = rewardAmountForEach;\n                electedPlayers[j].transfer(rewardAmountForEach);\n            }\n        }\n    }\n\n    function calculateEvaluatedScore(EvaluationScore[] _evaluations) internal pure returns (EvaluationScore) {\n        int16 totalOfAccuracyScore = 0;\n        int16 totalOfRelevantScore = 0;\n        uint16 length = uint16(_evaluations.length);\n        for (uint16 i=0; i < length; i++) {\n            totalOfAccuracyScore += _evaluations[i].accuracyScore;\n            totalOfRelevantScore += _evaluations[i].relevantScore;\n        }\n        uint8 averageAccuracyScore = uint8(totalOfAccuracyScore / int16(length));\n        uint8 averageRelevantScore = uint8(totalOfRelevantScore / int16(length));\n        \n        EvaluationScore memory _evaluatedScore = EvaluationScore({\n            accuracyScore: averageAccuracyScore,\n            relevantScore: averageRelevantScore\n        });\n        return _evaluatedScore;\n    }\n}\n",
  "sourcePath": "/home/ubuntu/my_workspace/streamfilter/channels/contracts/Ballotable.sol",
  "compiler": {
    "name": "solc",
    "version": "0.4.24+commit.e67f0147.Emscripten.clang"
  },
  "schemaVersion": "2.0.1",
  "updatedAt": "2018-10-07T05:36:20.149Z"
}