{
  "contractName": "BallotableContents",
  "abi": [
    {
      "constant": true,
      "inputs": [],
      "name": "sharedRewardPoolAmount",
      "outputs": [
        {
          "name": "",
          "type": "uint256"
        }
      ],
      "payable": false,
      "stateMutability": "view",
      "type": "function"
    },
    {
      "constant": true,
      "inputs": [
        {
          "name": "",
          "type": "uint256"
        }
      ],
      "name": "contentsFinalizedStatus",
      "outputs": [
        {
          "name": "",
          "type": "bool"
        }
      ],
      "payable": false,
      "stateMutability": "view",
      "type": "function"
    },
    {
      "constant": true,
      "inputs": [
        {
          "name": "",
          "type": "uint256"
        }
      ],
      "name": "contents",
      "outputs": [
        {
          "name": "accuracyScore",
          "type": "uint8"
        },
        {
          "name": "status",
          "type": "uint8"
        },
        {
          "name": "ballotCount",
          "type": "uint16"
        },
        {
          "name": "stakedAmount",
          "type": "uint256"
        },
        {
          "name": "closeAt",
          "type": "uint256"
        }
      ],
      "payable": false,
      "stateMutability": "view",
      "type": "function"
    },
    {
      "constant": true,
      "inputs": [
        {
          "name": "contentID",
          "type": "uint256"
        }
      ],
      "name": "getBallots",
      "outputs": [
        {
          "components": [
            {
              "components": [
                {
                  "name": "accuracy",
                  "type": "uint8"
                },
                {
                  "name": "relevant",
                  "type": "uint8"
                },
                {
                  "name": "population",
                  "type": "uint8"
                },
                {
                  "name": "accuracyDifferencesSquaredSum",
                  "type": "uint256"
                },
                {
                  "name": "accuracyVariance",
                  "type": "uint256"
                },
                {
                  "name": "standardDeviation",
                  "type": "uint256"
                }
              ],
              "name": "evaluationScore",
              "type": "tuple"
            },
            {
              "name": "stakingAmount",
              "type": "uint256"
            },
            {
              "name": "player",
              "type": "address"
            },
            {
              "name": "createdAt",
              "type": "uint256"
            }
          ],
          "name": "",
          "type": "tuple[]"
        }
      ],
      "payable": false,
      "stateMutability": "view",
      "type": "function"
    },
    {
      "constant": true,
      "inputs": [
        {
          "name": "contentID",
          "type": "uint256"
        }
      ],
      "name": "getAccuracyScore",
      "outputs": [
        {
          "name": "",
          "type": "uint8"
        }
      ],
      "payable": false,
      "stateMutability": "view",
      "type": "function"
    },
    {
      "constant": true,
      "inputs": [
        {
          "name": "contentID",
          "type": "uint256"
        }
      ],
      "name": "getStakedAmount",
      "outputs": [
        {
          "name": "",
          "type": "uint256"
        }
      ],
      "payable": false,
      "stateMutability": "view",
      "type": "function"
    },
    {
      "constant": true,
      "inputs": [
        {
          "name": "contentID",
          "type": "uint256"
        }
      ],
      "name": "getBallotCount",
      "outputs": [
        {
          "name": "",
          "type": "uint256"
        }
      ],
      "payable": false,
      "stateMutability": "view",
      "type": "function"
    },
    {
      "constant": true,
      "inputs": [
        {
          "name": "contentID",
          "type": "uint256"
        }
      ],
      "name": "getRewardWonPlayers",
      "outputs": [
        {
          "name": "",
          "type": "address[]"
        }
      ],
      "payable": false,
      "stateMutability": "view",
      "type": "function"
    },
    {
      "constant": true,
      "inputs": [
        {
          "name": "contentID",
          "type": "uint256"
        }
      ],
      "name": "getCloseAt",
      "outputs": [
        {
          "name": "",
          "type": "uint256"
        }
      ],
      "payable": false,
      "stateMutability": "view",
      "type": "function"
    },
    {
      "constant": true,
      "inputs": [
        {
          "name": "contentID",
          "type": "uint256"
        }
      ],
      "name": "isClosed",
      "outputs": [
        {
          "name": "",
          "type": "bool"
        }
      ],
      "payable": false,
      "stateMutability": "view",
      "type": "function"
    },
    {
      "constant": false,
      "inputs": [
        {
          "name": "contentID",
          "type": "uint256"
        },
        {
          "name": "accuracy",
          "type": "uint8"
        },
        {
          "name": "relevant",
          "type": "uint8"
        },
        {
          "name": "timestamp",
          "type": "uint256"
        }
      ],
      "name": "ballot",
      "outputs": [],
      "payable": true,
      "stateMutability": "payable",
      "type": "function"
    },
    {
      "constant": false,
      "inputs": [
        {
          "name": "contentID",
          "type": "uint256"
        }
      ],
      "name": "calcScoreAndSendRewardsIfNeeded",
      "outputs": [],
      "payable": false,
      "stateMutability": "nonpayable",
      "type": "function"
    }
  ],
  "bytecode": "0x608060405234801561001057600080fd5b5061204f806100206000396000f3006080604052600436106100ba576000357c0100000000000000000000000000000000000000000000000000000000900463ffffffff1680635a5392be146100bf57806362a2bda6146100fc57806399897630146101275780639a008e89146101645780639affc075146101a1578063aa25534c146101de578063b5ecf912146101fa578063d5c78a281461023b578063e5b4afeb14610278578063e8a9f65e146102b5578063ef4a6192146102f2578063fb7344d01461031b575b600080fd5b3480156100cb57600080fd5b506100e660048036036100e19190810190611aea565b610358565b6040516100f39190611eb2565b60405180910390f35b34801561010857600080fd5b50610111610378565b60405161011e9190611eb2565b60405180910390f35b34801561013357600080fd5b5061014e60048036036101499190810190611aea565b61037e565b60405161015b9190611e57565b60405180910390f35b34801561017057600080fd5b5061018b60048036036101869190810190611aea565b61039e565b6040516101989190611eb2565b60405180910390f35b3480156101ad57600080fd5b506101c860048036036101c39190810190611aea565b6103d0565b6040516101d59190611eb2565b60405180910390f35b6101f860048036036101f39190810190611b13565b6103f0565b005b34801561020657600080fd5b50610221600480360361021c9190810190611aea565b610b9d565b604051610232959493929190611ee8565b60405180910390f35b34801561024757600080fd5b50610262600480360361025d9190810190611aea565b610bfb565b60405161026f9190611e57565b60405180910390f35b34801561028457600080fd5b5061029f600480360361029a9190810190611aea565b610ce3565b6040516102ac9190611e13565b60405180910390f35b3480156102c157600080fd5b506102dc60048036036102d79190810190611aea565b610d84565b6040516102e99190611ecd565b60405180910390f35b3480156102fe57600080fd5b5061031960048036036103149190810190611aea565b610db1565b005b34801561032757600080fd5b50610342600480360361033d9190810190611aea565b611085565b60405161034f9190611e35565b60405180910390f35b600060066000838152602001908152602001600020600101549050919050565b60075481565b60056020528060005260406000206000915054906101000a900460ff1681565b60006006600083815260200190815260200160002060000160029054906101000a900461ffff1661ffff169050919050565b600060066000838152602001908152602001600020600201549050919050565b6103f86118ed565b61040061192d565b600061040a611973565b6000886005600082815260200190815260200160002060009054906101000a900460ff16151515610470576040517f08c379a000000000000000000000000000000000000000000000000000000000815260040161046790611e72565b60405180910390fd5b896001600082815260200190815260200160002060003373ffffffffffffffffffffffffffffffffffffffff1673ffffffffffffffffffffffffffffffffffffffff16815260200190815260200160002060009054906101000a900460ff16151515610511576040517f08c379a000000000000000000000000000000000000000000000000000000000815260040161050890611e92565b60405180910390fd5b60018060008d815260200190815260200160002060003373ffffffffffffffffffffffffffffffffffffffff1673ffffffffffffffffffffffffffffffffffffffff16815260200190815260200160002060006101000a81548160ff02191690831515021790555060c0604051908101604052808b60ff1681526020018a60ff168152602001600060ff1681526020016000815260200160008152602001600081525096506080604051908101604052808881526020013481526020013373ffffffffffffffffffffffffffffffffffffffff1681526020018981525095506000808c8152602001908152602001600020869080600181540180825580915050906001820390600052602060002090600702016000909192909190915060008201518160000160008201518160000160006101000a81548160ff021916908360ff16021790555060208201518160000160016101000a81548160ff021916908360ff16021790555060408201518160000160026101000a81548160ff021916908360ff160217905550606082015181600101556080820151816002015560a0820151816003015550506020820151816004015560408201518160050160006101000a81548173ffffffffffffffffffffffffffffffffffffffff021916908373ffffffffffffffffffffffffffffffffffffffff16021790555060608201518160060155505050600460008c8152602001908152602001600020879080600181540180825580915050906001820390600052602060002090600402016000909192909190915060008201518160000160006101000a81548160ff021916908360ff16021790555060208201518160000160016101000a81548160ff021916908360ff16021790555060408201518160000160026101000a81548160ff021916908360ff160217905550606082015181600101556080820151816002015560a082015181600301555050506000600660008d815260200190815260200160002060000160029054906101000a900461ffff1661ffff161415156108f357600660008c8152602001908152602001600020945060018560000160028282829054906101000a900461ffff160192506101000a81548161ffff021916908361ffff1602179055503485600101600082825401925050819055506108708b610bfb565b15156108ee57600260008c81526020019081526020016000203390806001815401808255809150509060018203906000526020600020016000909192909190916101000a81548173ffffffffffffffffffffffffffffffffffffffff021916908373ffffffffffffffffffffffffffffffffffffffff160217905550505b610a46565b60a060405190810160405280600060ff1681526020016000600181111561091657fe5b8152602001600161ffff1681526020013481526020016104b04201815250935083600660008d815260200190815260200160002060008201518160000160006101000a81548160ff021916908360ff16021790555060208201518160000160016101000a81548160ff0219169083600181111561098f57fe5b021790555060408201518160000160026101000a81548161ffff021916908361ffff1602179055506060820151816001015560808201518160020155905050600260008c81526020019081526020016000203390806001815401808255809150509060018203906000526020600020016000909192909190916101000a81548173ffffffffffffffffffffffffffffffffffffffff021916908373ffffffffffffffffffffffffffffffffffffffff160217905550505b600660008c81526020019081526020016000209250858360030160003373ffffffffffffffffffffffffffffffffffffffff1673ffffffffffffffffffffffffffffffffffffffff16815260200190815260200160002060008201518160000160008201518160000160006101000a81548160ff021916908360ff16021790555060208201518160000160016101000a81548160ff021916908360ff16021790555060408201518160000160026101000a81548160ff021916908360ff160217905550606082015181600101556080820151816002015560a0820151816003015550506020820151816004015560408201518160050160006101000a81548173ffffffffffffffffffffffffffffffffffffffff021916908373ffffffffffffffffffffffffffffffffffffffff16021790555060608201518160060155905050610b908b610db1565b5050505050505050505050565b60066020528060005260406000206000915090508060000160009054906101000a900460ff16908060000160019054906101000a900460ff16908060000160029054906101000a900461ffff16908060010154908060020154905085565b6000610c05611973565b6005600084815260200190815260200160002060009054906101000a900460ff1615610c345760019150610cdd565b6006600084815260200190815260200160002060a060405190810160405290816000820160009054906101000a900460ff1660ff1660ff1681526020016000820160019054906101000a900460ff166001811115610c8e57fe5b6001811115610c9957fe5b81526020016000820160029054906101000a900461ffff1661ffff1661ffff1681526020016001820154815260200160028201548152505090508060800151421191505b50919050565b606060036000838152602001908152602001600020805480602002602001604051908101604052809291908181526020018280548015610d7857602002820191906000526020600020905b8160009054906101000a900473ffffffffffffffffffffffffffffffffffffffff1673ffffffffffffffffffffffffffffffffffffffff1681526020019060010190808311610d2e575b50505050509050919050565b60006006600083815260200190815260200160002060000160009054906101000a900460ff169050919050565b6060610dbb6118ed565b60006060846005600082815260200190815260200160002060009054906101000a900460ff16151515610e23576040517f08c379a0000000000000000000000000000000000000000000000000000000008152600401610e1a90611e72565b60405180910390fd5b60046000878152602001908152602001600020805480602002602001604051908101604052809291908181526020016000905b82821015610efe578382906000526020600020906004020160c060405190810160405290816000820160009054906101000a900460ff1660ff1660ff1681526020016000820160019054906101000a900460ff1660ff1660ff1681526020016000820160029054906101000a900460ff1660ff1660ff168152602001600182015481526020016002820154815260200160038201548152505081526020019060010190610e56565b505050509450610f0d856111eb565b935060066000878152602001908152602001600020925083600001518360000160006101000a81548160ff021916908360ff160217905550610f4e86610bfb565b8015610f71575060038360000160029054906101000a900461ffff1661ffff1610155b80610f935750600a8360000160029054906101000a900461ffff1661ffff1610155b1561107c576002600087815260200190815260200160002080548060200260200160405190810160405280929190818152602001828054801561102b57602002820191906000526020600020905b8160009054906101000a900473ffffffffffffffffffffffffffffffffffffffff1673ffffffffffffffffffffffffffffffffffffffff1681526020019060010190808311610fe1575b5050505050915061103d86858461137d565b6003600088815260200190815260200160002090805190602001906110639291906119b5565b5061106e8685611632565b61107786611873565b61107d565b5b505050505050565b6060600080838152602001908152602001600020805480602002602001604051908101604052809291908181526020016000905b828210156111e05783829060005260206000209060070201608060405190810160405290816000820160c060405190810160405290816000820160009054906101000a900460ff1660ff1660ff1681526020016000820160019054906101000a900460ff1660ff1660ff1681526020016000820160029054906101000a900460ff1660ff1660ff16815260200160018201548152602001600282015481526020016003820154815250508152602001600482015481526020016005820160009054906101000a900473ffffffffffffffffffffffffffffffffffffffff1673ffffffffffffffffffffffffffffffffffffffff1673ffffffffffffffffffffffffffffffffffffffff168152602001600682015481525050815260200190600101906110b9565b505050509050919050565b6111f36118ed565b60008060008060008060008060008061120a6118ed565b60009a5060009950600098508c51975060008861ffff161415151561122e57600080fd5b600096505b8761ffff168761ffff16101561129e578c8761ffff1681518110151561125557fe5b906020019060200201516000015160ff168b019a508c8761ffff1681518110151561127c57fe5b906020019060200201516020015160ff168a0199508680600101975050611233565b8760010b8b60010b8115156112af57fe5b0595508760010b8a60010b8115156112c357fe5b059450600093505b8761ffff168461ffff1610156113145760028d8561ffff168151811015156112ef57fe5b906020019060200201516000015187031860ff168901985083806001019450506112cb565b8761ffff168981151561132357fe5b04925061132f836118a2565b915060c0604051908101604052808760ff1681526020018660ff1681526020018960ff1681526020018a8152602001848152602001838152509050809b505050505050505050505050919050565b60606000606060008060008061139161192d565b6000808a5198508861ffff166040519080825280602002602001820160405280156113cb5781602001602082028038833980820191505090505b50975060018c60a0015110965086156113e6578a975061161f565b60009550600094505b8861ffff1685101561161e578a8581518110151561140957fe5b906020019060200201519350600660008e815260200190815260200160002060030160008573ffffffffffffffffffffffffffffffffffffffff1673ffffffffffffffffffffffffffffffffffffffff168152602001908152602001600020608060405190810160405290816000820160c060405190810160405290816000820160009054906101000a900460ff1660ff1660ff1681526020016000820160019054906101000a900460ff1660ff1660ff1681526020016000820160029054906101000a900460ff1660ff1660ff16815260200160018201548152602001600282015481526020016003820154815250508152602001600482015481526020016005820160009054906101000a900473ffffffffffffffffffffffffffffffffffffffff1673ffffffffffffffffffffffffffffffffffffffff1673ffffffffffffffffffffffffffffffffffffffff16815260200160068201548152505092508260000151600001519150818c600001510390507fffffffffffffffffffffffffffffffffffffffffffffffffffffffffffffffff8160000b1215806115b4575060018160000b13155b156116115783888761ffff168151811015156115cc57fe5b9060200190602002019073ffffffffffffffffffffffffffffffffffffffff16908173ffffffffffffffffffffffffffffffffffffffff168152505085806001019650505b84806001019550506113ef565b5b8799505050505050505050509392505050565b600060606000806000806000806000808b6005600082815260200190815260200160002060009054906101000a900460ff161515156116a6576040517f08c379a000000000000000000000000000000000000000000000000000000000815260040161169d90611e72565b60405180910390fd5b600660008e81526020019081526020016000209a50600360008e815260200190815260200160002080548060200260200160405190810160405280929190818152602001828054801561174e57602002820191906000526020600020905b8160009054906101000a900473ffffffffffffffffffffffffffffffffffffffff1673ffffffffffffffffffffffffffffffffffffffff1681526020019060010190808311611704575b5050505050995060018c60a001511098508951975060008861ffff161115611864578761ffff168b6001015481151561178357fe5b049650600095506000945088156117b7578761ffff166007548115156117a557fe5b049350838701965060075494506117d5565b600a878115156117c357fe5b04925082870396508761ffff16830295505b600091505b8761ffff168210156118515789828151811015156117f457fe5b9060200190602002015173ffffffffffffffffffffffffffffffffffffffff166108fc889081150290604051600060405180830381858888f19350505050158015611843573d6000803e3d6000fd5b5081806001019250506117da565b8486036007600082825401925050819055505b50505050505050505050505050565b60016005600083815260200190815260200160002060006101000a81548160ff02191690831515021790555050565b6000806002600184018115156118b457fe5b0490508291505b818110156118e75780915060028182858115156118d457fe5b04018115156118df57fe5b0490506118bb565b50919050565b60c060405190810160405280600060ff168152602001600060ff168152602001600060ff1681526020016000815260200160008152602001600081525090565b61012060405190810160405280611942611a3f565b815260200160008152602001600073ffffffffffffffffffffffffffffffffffffffff168152602001600081525090565b60a060405190810160405280600060ff1681526020016000600181111561199657fe5b8152602001600061ffff16815260200160008152602001600081525090565b828054828255906000526020600020908101928215611a2e579160200282015b82811115611a2d5782518260006101000a81548173ffffffffffffffffffffffffffffffffffffffff021916908373ffffffffffffffffffffffffffffffffffffffff160217905550916020019190600101906119d5565b5b509050611a3b9190611a7f565b5090565b60c060405190810160405280600060ff168152602001600060ff168152602001600060ff1681526020016000815260200160008152602001600081525090565b611abf91905b80821115611abb57600081816101000a81549073ffffffffffffffffffffffffffffffffffffffff021916905550600101611a85565b5090565b90565b6000611ace8235611fec565b905092915050565b6000611ae28235611ff6565b905092915050565b600060208284031215611afc57600080fd5b6000611b0a84828501611ac2565b91505092915050565b60008060008060808587031215611b2957600080fd5b6000611b3787828801611ac2565b9450506020611b4887828801611ad6565b9350506040611b5987828801611ad6565b9250506060611b6a87828801611ac2565b91505092959194509250565b611b7f81611f85565b82525050565b6000611b9082611f55565b808452602084019350611ba283611f3b565b60005b82811015611bd457611bb8868351611b76565b611bc182611f6b565b9150602086019550600181019050611ba5565b50849250505092915050565b6000611beb82611f60565b808452602084019350611bfd83611f48565b60005b82811015611c3057611c13868351611d14565b611c1c82611f78565b915061012086019550600181019050611c00565b50849250505092915050565b611c4581611fa5565b82525050565b611c5481612003565b82525050565b6000602282527f5468697320636f6e74656e7420697320616c72656164792066696e616c697a6560208301527f642e0000000000000000000000000000000000000000000000000000000000006040830152606082019050919050565b6000602782527f4f6e6c79206f6e652d74696d6520746f20746f2063616c6c207468697320667560208301527f6e6374696f6e2e000000000000000000000000000000000000000000000000006040830152606082019050919050565b61012082016000820151611d2b6000850182611d6b565b506020820151611d3e60c0850182611df5565b506040820151611d5160e0850182611b76565b506060820151611d65610100850182611df5565b50505050565b60c082016000820151611d816000850182611e04565b506020820151611d946020850182611e04565b506040820151611da76040850182611e04565b506060820151611dba6060850182611df5565b506080820151611dcd6080850182611df5565b5060a0820151611de060a0850182611df5565b50505050565b611def81611fc7565b82525050565b611dfe81611fd5565b82525050565b611e0d81611fdf565b82525050565b60006020820190508181036000830152611e2d8184611b85565b905092915050565b60006020820190508181036000830152611e4f8184611be0565b905092915050565b6000602082019050611e6c6000830184611c3c565b92915050565b60006020820190508181036000830152611e8b81611c5a565b9050919050565b60006020820190508181036000830152611eab81611cb7565b9050919050565b6000602082019050611ec76000830184611df5565b92915050565b6000602082019050611ee26000830184611e04565b92915050565b600060a082019050611efd6000830188611e04565b611f0a6020830187611c4b565b611f176040830186611de6565b611f246060830185611df5565b611f316080830184611df5565b9695505050505050565b6000602082019050919050565b6000602082019050919050565b600081519050919050565b600081519050919050565b6000602082019050919050565b6000602082019050919050565b600073ffffffffffffffffffffffffffffffffffffffff82169050919050565b60008115159050919050565b6000600282101515611fbf57fe5b819050919050565b600061ffff82169050919050565b6000819050919050565b600060ff82169050919050565b6000819050919050565b600060ff82169050919050565b600061200e82611fb1565b90509190505600a265627a7a72305820767bd57c76581c5bc38ec8a43d0265acac7e4b1264e75139e63c2ac86197900b6c6578706572696d656e74616cf50037",
  "source": "pragma solidity ^0.4.24;\npragma experimental ABIEncoderV2;\n\n\ncontract BallotableContents {\n\n    struct Ballot {\n        EvaluationScore evaluationScore;\n        uint stakingAmount;     // [wei]\n        address player;\n        uint createdAt;\n    }\n\n    struct EvaluationScore {\n        uint8 accuracy;\n        uint8 relevant;\n        // for math\n        uint8 population;\n        uint accuracyDifferencesSquaredSum;\n        uint accuracyVariance;\n        uint standardDeviation;\n    }\n\n    enum ContentStatus {\n        Live,\n        Closed\n    }\n\n    struct Content {\n        uint8 accuracyScore;\n        ContentStatus status;\n        uint16 ballotCount;\n        uint stakedAmount;   // [wei]\n        uint closeAt;\n        mapping ( address => Ballot) ballots;\n    }\n\n    struct Reward {\n        address targetPlayer;\n        uint amount;    // [wei]\n    }\n\n    mapping (uint => Ballot[]) private contentsWithBallot;\n    mapping (uint => mapping (address => bool)) private playersForExists;\n    mapping (uint => address[]) private rewardCandidatePlayers;\n    mapping (uint => address[]) private rewardWonPlayers;\n    mapping (uint => EvaluationScore[]) private contentsWithEvaluationScore;\n    mapping (uint => bool) public contentsFinalizedStatus;\n    mapping (uint => Content) public contents;\n    uint public sharedRewardPoolAmount;    // Jackpot\n\n    modifier isOpen(uint contentID) {\n        require(\n            !contentsFinalizedStatus[contentID],\n            \"This content is already finalized.\"\n        );\n        _;\n    }\n\n    modifier onetimeOnly(uint contentID) {\n        require(\n            !playersForExists[contentID][msg.sender],\n            \"Only one-time to to call this function.\"\n        );\n        _;\n    }\n\n    function getBallots(\n        uint contentID\n        ) public view returns(Ballot[]) {\n        return contentsWithBallot[contentID];\n    }\n\n    function getAccuracyScore(uint contentID) public view returns(uint8) {\n        return contents[contentID].accuracyScore;\n    }\n\n    function getStakedAmount(uint contentID) public view returns(uint) {\n        return contents[contentID].stakedAmount;\n    }\n\n    function getBallotCount(uint contentID) public view returns(uint) {\n        return contents[contentID].ballotCount;\n    }\n    \n    function getRewardWonPlayers(uint contentID) public view returns(address[]) {\n        return rewardWonPlayers[contentID];\n    }\n\n    function getCloseAt(uint contentID) public view returns(uint) {\n        return contents[contentID].closeAt;\n    }\n\n    function isClosed(uint contentID) public view returns(bool) {\n        if (contentsFinalizedStatus[contentID]) {\n            return true;\n        } else {\n            Content memory _content = contents[contentID];\n            return now > _content.closeAt;\n        }\n    }\n\n    function ballot(\n        uint contentID, uint8 accuracy, uint8 relevant, uint timestamp\n        ) public payable \n        isOpen(contentID)\n        onetimeOnly(contentID)\n        {\n\n        playersForExists[contentID][msg.sender] = true;\n\n        EvaluationScore memory _score = EvaluationScore({\n            accuracy: accuracy,\n            relevant: relevant,\n            population: 0,\n            accuracyDifferencesSquaredSum: 0,\n            accuracyVariance: 0,\n            standardDeviation: 0\n        });\n\n        Ballot memory _ballot = Ballot({\n            evaluationScore: _score,\n            stakingAmount: msg.value,\n            player: msg.sender,\n            createdAt: timestamp\n        });\n\n        contentsWithBallot[contentID].push(_ballot);\n        contentsWithEvaluationScore[contentID].push(_score);\n        \n        if (contents[contentID].ballotCount != 0) {\n            // 2+ time\n            Content storage _content = contents[contentID];\n            _content.ballotCount += 1;\n            _content.stakedAmount += msg.value;\n            \n\n            if (!isClosed(contentID)) {\n                rewardCandidatePlayers[contentID].push(msg.sender);\n            }\n        } else {\n            // First time\n            Content memory _contentNew = Content({\n                accuracyScore: 0,\n                status: ContentStatus.Live,\n                ballotCount: 1,\n                stakedAmount: msg.value,\n                closeAt: now + 20 minutes\n            });\n            contents[contentID] = _contentNew;\n            rewardCandidatePlayers[contentID].push(msg.sender);\n        }\n        \n        Content storage __content = contents[contentID];\n        __content.ballots[msg.sender] = _ballot;\n\n        calcScoreAndSendRewardsIfNeeded(contentID);\n    }\n\n    function calcScoreAndSendRewardsIfNeeded(uint contentID) public isOpen(contentID) {\n        EvaluationScore[] memory _evaluations = contentsWithEvaluationScore[contentID];\n        EvaluationScore memory _evaluatedScore = calculateEvaluatedScore(_evaluations);\n\n        Content storage _content = contents[contentID];\n        _content.accuracyScore = _evaluatedScore.accuracy;\n\n        if ((isClosed(contentID) && _content.ballotCount >= 3) || _content.ballotCount >= 10) {\n            address[] memory _rewardCandidatePlayers = rewardCandidatePlayers[contentID];\n            rewardWonPlayers[contentID] = electContributors(\n                contentID,\n                _evaluatedScore, \n                _rewardCandidatePlayers);\n            calcRewardsAndSend(contentID, _evaluatedScore);\n            closeContent(contentID);\n        } else {\n            // TODO extend time?\n        }\n    }\n\n    function closeContent(uint contentID) internal {\n        contentsFinalizedStatus[contentID] = true;\n    }\n\n    function electContributors(\n        uint contentID,\n        EvaluationScore _evaluatedScore,\n        address[] _candidatePlayers\n        ) internal returns(address[]) {\n        \n        uint16 _candidatePlayerslength = uint16(_candidatePlayers.length);\n        address[] memory _rewardWonPlayers = new address[](_candidatePlayerslength);\n\n        bool isEveryoneFaithful = _evaluatedScore.standardDeviation < 1;\n\n        if (isEveryoneFaithful) {\n            _rewardWonPlayers = _candidatePlayers;\n        } else {\n            uint16 _rewardWonPlayersIndex = 0;\n            for (uint i=0; i < _candidatePlayerslength; i++) {\n                address _player = _candidatePlayers[i];\n                Ballot memory _ballot = contents[contentID].ballots[_player];\n                uint8 _accuracy = _ballot.evaluationScore.accuracy;\n\n                int8 diff = int8(_evaluatedScore.accuracy) - int8(_accuracy);\n                if (diff >= -1 || diff <= 1) {\n                    _rewardWonPlayers[_rewardWonPlayersIndex] = _player;\n                    _rewardWonPlayersIndex++;\n                }\n            }\n        }\n        \n        return _rewardWonPlayers;\n    }\n\n    function calcRewardsAndSend(uint contentID, EvaluationScore _evaluatedScore) internal isOpen(contentID) {\n        Content storage _content = contents[contentID];\n        address[] memory _rewardWonPlayers = rewardWonPlayers[contentID];\n\n        bool isEveryoneFaithful = _evaluatedScore.standardDeviation < 1;\n\n        uint16 _rewardWonPlayerslength = uint16(_rewardWonPlayers.length);\n        if (_rewardWonPlayerslength > 0) {\n            uint rewardAmountForEach = _content.stakedAmount / _rewardWonPlayerslength;\n            uint addToSharedRewardPoolAmount = 0;\n            uint subFromSharedRewardPoolAmount = 0;\n\n            if (isEveryoneFaithful) {\n                uint fromSharedRewardPoolForEach = sharedRewardPoolAmount / _rewardWonPlayerslength;\n                rewardAmountForEach += fromSharedRewardPoolForEach;\n                subFromSharedRewardPoolAmount = sharedRewardPoolAmount;\n            } else {\n                uint togoSharedRewardPoolForEach = rewardAmountForEach / 10; // 10% goes to shared pool!!!;\n                rewardAmountForEach -= togoSharedRewardPoolForEach;\n                addToSharedRewardPoolAmount = togoSharedRewardPoolForEach * _rewardWonPlayerslength;\n            }\n\n            for (uint j=0; j < _rewardWonPlayerslength; j++) {\n                // Send reward.\n                _rewardWonPlayers[j].transfer(rewardAmountForEach);\n            }\n\n            sharedRewardPoolAmount += addToSharedRewardPoolAmount - subFromSharedRewardPoolAmount;\n        }\n    }\n\n    function calculateEvaluatedScore(\n        EvaluationScore[] _evaluations) \n        internal pure returns(EvaluationScore) \n        {\n        int16 totalOfAccuracyScore = 0;\n        int16 totalOfRelevantScore = 0;\n        uint accuracyDifferencesSquaredSum = 0;\n        uint16 length = uint16(_evaluations.length);\n        require(length != 0);\n\n        for (uint16 i=0; i < length; i++) {\n            totalOfAccuracyScore += _evaluations[i].accuracy;\n            totalOfRelevantScore += _evaluations[i].relevant;\n        }\n        uint8 averageAccuracyScore = uint8(totalOfAccuracyScore / int16(length));\n        uint8 averageRelevantScore = uint8(totalOfRelevantScore / int16(length));\n\n        for (uint16 j=0; j < length; j++) {\n            accuracyDifferencesSquaredSum += (averageAccuracyScore - _evaluations[j].accuracy)^2;\n        }\n        uint accuracyVariance = accuracyDifferencesSquaredSum / length;\n        uint standardDeviation = sqrt(accuracyVariance);\n        \n        EvaluationScore memory _evaluatedScore = EvaluationScore({\n            accuracy: averageAccuracyScore,\n            relevant: averageRelevantScore,\n            population: uint8(length),\n            accuracyDifferencesSquaredSum: accuracyDifferencesSquaredSum,\n            accuracyVariance: accuracyVariance,\n            standardDeviation: standardDeviation\n        });\n        return _evaluatedScore;\n    }\n\n    function sqrt(uint x) internal pure returns (uint y) {\n        uint z = (x + 1) / 2;\n        y = x;\n        while (z < y) {\n            y = z;\n            z = (x / z + z) / 2;\n        }\n    }\n}\n \n",
  "sourcePath": "/Users/kenichi/Repository/ETHSF_streamfilter/channels/contracts/BallotableContents.sol",
  "compiler": {
    "name": "solc",
    "version": "0.4.24+commit.e67f0147.Linux.g++"
  },
  "schemaVersion": "3.0.0-beta.1",
  "updatedAt": "2018-10-07T15:36:41.375Z"
}