{
  "contractName": "BallotableContents",
  "abi": [
    {
      "constant": true,
      "inputs": [
        {
          "name": "contentID",
          "type": "uint256"
        }
      ],
      "name": "getBallots",
      "outputs": [
        {
          "components": [
            {
              "components": [
                {
                  "name": "accuracy",
                  "type": "uint8"
                },
                {
                  "name": "relevant",
                  "type": "uint8"
                }
              ],
              "name": "evaluationScore",
              "type": "tuple"
            },
            {
              "name": "user",
              "type": "address"
            },
            {
              "name": "createdAt",
              "type": "uint256"
            }
          ],
          "name": "",
          "type": "tuple[]"
        }
      ],
      "payable": false,
      "stateMutability": "view",
      "type": "function"
    },
    {
      "constant": false,
      "inputs": [
        {
          "name": "contentID",
          "type": "uint256"
        },
        {
          "name": "accuracy",
          "type": "uint8"
        },
        {
          "name": "relevant",
          "type": "uint8"
        },
        {
          "name": "timestamp",
          "type": "uint256"
        }
      ],
      "name": "ballot",
      "outputs": [],
      "payable": false,
      "stateMutability": "nonpayable",
      "type": "function"
    }
  ],
  "bytecode": "0x608060405234801561001057600080fd5b50610619806100206000396000f30060806040526004361061004c576000357c0100000000000000000000000000000000000000000000000000000000900463ffffffff168063aa25534c14610051578063fb7344d01461007a575b600080fd5b34801561005d57600080fd5b50610078600480360361007391908101906103ee565b6100b7565b005b34801561008657600080fd5b506100a1600480360361009c91908101906103c5565b6101ff565b6040516100ae919061054a565b60405180910390f35b6100bf61031f565b6100c761033f565b60408051908101604052808660ff1681526020018560ff1681525091506060604051908101604052808381526020013373ffffffffffffffffffffffffffffffffffffffff168152602001848152509050600080878152602001908152602001600020819080600181540180825580915050906001820390600052602060002090600302016000909192909190915060008201518160000160008201518160000160006101000a81548160ff021916908360ff16021790555060208201518160000160016101000a81548160ff021916908360ff160217905550505060208201518160010160006101000a81548173ffffffffffffffffffffffffffffffffffffffff021916908373ffffffffffffffffffffffffffffffffffffffff16021790555060408201518160020155505050505050505050565b6060600080838152602001908152602001600020805480602002602001604051908101604052809291908181526020016000905b82821015610314578382906000526020600020906003020160606040519081016040529081600082016040805190810160405290816000820160009054906101000a900460ff1660ff1660ff1681526020016000820160019054906101000a900460ff1660ff1660ff168152505081526020016001820160009054906101000a900473ffffffffffffffffffffffffffffffffffffffff1673ffffffffffffffffffffffffffffffffffffffff1673ffffffffffffffffffffffffffffffffffffffff16815260200160028201548152505081526020019060010190610233565b505050509050919050565b6040805190810160405280600060ff168152602001600060ff1681525090565b60806040519081016040528061035361037d565b8152602001600073ffffffffffffffffffffffffffffffffffffffff168152602001600081525090565b6040805190810160405280600060ff168152602001600060ff1681525090565b60006103a982356105c8565b905092915050565b60006103bd82356105d2565b905092915050565b6000602082840312156103d757600080fd5b60006103e58482850161039d565b91505092915050565b6000806000806080858703121561040457600080fd5b60006104128782880161039d565b9450506020610423878288016103b1565b9350506040610434878288016103b1565b92505060606104458782880161039d565b91505092959194509250565b61045a81610591565b82525050565b600061046b82610579565b80845260208401935061047d8361056c565b60005b828110156104af576104938683516104bb565b61049c82610584565b9150608086019550600181019050610480565b50849250505092915050565b6080820160008201516104d160008501826104fd565b5060208201516104e46040850182610451565b5060408201516104f7606085018261052c565b50505050565b604082016000820151610513600085018261053b565b506020820151610526602085018261053b565b50505050565b610535816105b1565b82525050565b610544816105bb565b82525050565b600060208201905081810360008301526105648184610460565b905092915050565b6000602082019050919050565b600081519050919050565b6000602082019050919050565b600073ffffffffffffffffffffffffffffffffffffffff82169050919050565b6000819050919050565b600060ff82169050919050565b6000819050919050565b600060ff821690509190505600a265627a7a72305820599c52d36f0d444f285bb53ea79b653acce0b8d6a640a9371ecfa263f0f5b84e6c6578706572696d656e74616cf50037",
  "source": "pragma solidity ^0.4.24;\npragma experimental ABIEncoderV2;\n\n\ncontract BallotableContents {\n\n    struct Ballot {\n        EvaluationScore evaluationScore;\n        address user;\n        uint createdAt;\n    }\n\n    struct EvaluationScore {\n        uint8 accuracy;\n        uint8 relevant;\n    }\n\n    mapping (uint => Ballot[]) contentsWithBallot;\n\n    function getBallots(\n        uint contentID\n        ) public view returns(Ballot[]) {\n        return contentsWithBallot[contentID];\n    }\n\n    function ballot(uint contentID, uint8 accuracy, uint8 relevant, uint timestamp) public {\n        EvaluationScore memory _score = EvaluationScore({\n            accuracy: accuracy,\n            relevant: relevant\n        });\n\n        Ballot memory _ballot = Ballot({\n            evaluationScore: _score,\n            user: msg.sender,\n            createdAt: timestamp\n        });\n\n        contentsWithBallot[contentID].push(_ballot);\n    }\n}",
  "sourcePath": "/Users/kenichi/Repository/ETHSF_streamfilter/channels/contracts/BallotableContents.sol",
  "compiler": {
    "name": "solc",
    "version": "0.4.24+commit.e67f0147.Linux.g++"
  },
  "schemaVersion": "3.0.0-beta.1",
  "updatedAt": "2018-10-06T13:06:01.891Z"
}