{
  "contractName": "BallotableContents",
  "abi": [
    {
      "constant": true,
      "inputs": [
        {
          "name": "",
          "type": "uint256"
        }
      ],
      "name": "contentsStatus",
      "outputs": [
        {
          "name": "",
          "type": "bool"
        }
      ],
      "payable": false,
      "stateMutability": "view",
      "type": "function"
    },
    {
      "constant": true,
      "inputs": [
        {
          "name": "contentID",
          "type": "uint256"
        }
      ],
      "name": "getBallots",
      "outputs": [
        {
          "components": [
            {
              "components": [
                {
                  "name": "accuracy",
                  "type": "uint8"
                },
                {
                  "name": "relevant",
                  "type": "uint8"
                }
              ],
              "name": "evaluationScore",
              "type": "tuple"
            },
            {
              "name": "stakingAmount",
              "type": "uint256"
            },
            {
              "name": "user",
              "type": "address"
            },
            {
              "name": "createdAt",
              "type": "uint256"
            }
          ],
          "name": "",
          "type": "tuple[]"
        }
      ],
      "payable": false,
      "stateMutability": "view",
      "type": "function"
    },
    {
      "constant": false,
      "inputs": [
        {
          "name": "contentID",
          "type": "uint256"
        },
        {
          "name": "accuracy",
          "type": "uint8"
        },
        {
          "name": "relevant",
          "type": "uint8"
        },
        {
          "name": "timestamp",
          "type": "uint256"
        }
      ],
      "name": "ballot",
      "outputs": [],
      "payable": true,
      "stateMutability": "payable",
      "type": "function"
    },
    {
      "constant": false,
      "inputs": [
        {
          "name": "contentID",
          "type": "uint256"
        },
        {
          "components": [
            {
              "name": "targetUser",
              "type": "address"
            },
            {
              "name": "amount",
              "type": "uint256"
            }
          ],
          "name": "rewards",
          "type": "tuple[]"
        }
      ],
      "name": "sendRewards",
      "outputs": [],
      "payable": false,
      "stateMutability": "nonpayable",
      "type": "function"
    }
  ],
  "bytecode": "0x608060405234801561001057600080fd5b50610af5806100206000396000f300608060405260043610610062576000357c0100000000000000000000000000000000000000000000000000000000900463ffffffff1680630890cd02146100675780632fa55d5f146100a4578063aa25534c146100cd578063fb7344d0146100e9575b600080fd5b34801561007357600080fd5b5061008e60048036036100899190810190610712565b610126565b60405161009b919061098c565b60405180910390f35b3480156100b057600080fd5b506100cb60048036036100c6919081019061073b565b610146565b005b6100e760048036036100e2919081019061078f565b61026a565b005b3480156100f557600080fd5b50610110600480360361010b9190810190610712565b610426565b60405161011d919061096a565b60405180910390f35b60016020528060005260406000206000915054906101000a900460ff1681565b6000610150610550565b836001600082815260200190815260200160002060009054906101000a900460ff1615156101b3576040517f08c379a00000000000000000000000000000000000000000000000000000000081526004016101aa906109a7565b60405180910390fd5b60006001600087815260200190815260200160002060006101000a81548160ff021916908315150217905550600092505b83518310156102635783838151811015156101fb57fe5b906020019060200201519150816000015173ffffffffffffffffffffffffffffffffffffffff166108fc83602001519081150290604051600060405180830381858888f19350505050158015610255573d6000803e3d6000fd5b5082806001019350506101e4565b5050505050565b610272610580565b61027a6105a0565b856001600082815260200190815260200160002060009054906101000a900460ff1615156102dd576040517f08c379a00000000000000000000000000000000000000000000000000000000081526004016102d4906109a7565b60405180910390fd5b60408051908101604052808760ff1681526020018660ff1681525092506080604051908101604052808481526020013481526020013373ffffffffffffffffffffffffffffffffffffffff168152602001858152509150600080888152602001908152602001600020829080600181540180825580915050906001820390600052602060002090600402016000909192909190915060008201518160000160008201518160000160006101000a81548160ff021916908360ff16021790555060208201518160000160016101000a81548160ff021916908360ff16021790555050506020820151816001015560408201518160020160006101000a81548173ffffffffffffffffffffffffffffffffffffffff021916908373ffffffffffffffffffffffffffffffffffffffff1602179055506060820151816003015550505050505050505050565b6060600080838152602001908152602001600020805480602002602001604051908101604052809291908181526020016000905b82821015610545578382906000526020600020906004020160806040519081016040529081600082016040805190810160405290816000820160009054906101000a900460ff1660ff1660ff1681526020016000820160019054906101000a900460ff1660ff1660ff16815250508152602001600182015481526020016002820160009054906101000a900473ffffffffffffffffffffffffffffffffffffffff1673ffffffffffffffffffffffffffffffffffffffff1673ffffffffffffffffffffffffffffffffffffffff1681526020016003820154815250508152602001906001019061045a565b505050509050919050565b6040805190810160405280600073ffffffffffffffffffffffffffffffffffffffff168152602001600081525090565b6040805190810160405280600060ff168152602001600060ff1681525090565b60a0604051908101604052806105b46105e5565b815260200160008152602001600073ffffffffffffffffffffffffffffffffffffffff168152602001600081525090565b6040805190810160405280600060ff168152602001600060ff1681525090565b60006106118235610a84565b905092915050565b600082601f830112151561062c57600080fd5b813561063f61063a826109f4565b6109c7565b9150818183526020840193506020810190508385604084028201111561066457600080fd5b60005b83811015610694578161067a888261069e565b845260208401935060408301925050600181019050610667565b5050505092915050565b6000604082840312156106b057600080fd5b6106ba60406109c7565b905060006106ca84828501610605565b60008301525060206106de848285016106ea565b60208301525092915050565b60006106f68235610aa4565b905092915050565b600061070a8235610aae565b905092915050565b60006020828403121561072457600080fd5b6000610732848285016106ea565b91505092915050565b6000806040838503121561074e57600080fd5b600061075c858286016106ea565b925050602083013567ffffffffffffffff81111561077957600080fd5b61078585828601610619565b9150509250929050565b600080600080608085870312156107a557600080fd5b60006107b3878288016106ea565b94505060206107c4878288016106fe565b93505060406107d5878288016106fe565b92505060606107e6878288016106ea565b91505092959194509250565b6107fb81610a41565b82525050565b600061080c82610a29565b80845260208401935061081e83610a1c565b60005b82811015610850576108348683516108c8565b61083d82610a34565b915060a086019550600181019050610821565b50849250505092915050565b61086581610a61565b82525050565b6000602282527f5468697320636f6e74656e7420697320616c72656164792066696e616c697a6560208301527f642e0000000000000000000000000000000000000000000000000000000000006040830152606082019050919050565b60a0820160008201516108de600085018261091d565b5060208201516108f1604085018261094c565b50604082015161090460608501826107f2565b506060820151610917608085018261094c565b50505050565b604082016000820151610933600085018261095b565b506020820151610946602085018261095b565b50505050565b61095581610a6d565b82525050565b61096481610a77565b82525050565b600060208201905081810360008301526109848184610801565b905092915050565b60006020820190506109a1600083018461085c565b92915050565b600060208201905081810360008301526109c08161086b565b9050919050565b6000604051905081810181811067ffffffffffffffff821117156109ea57600080fd5b8060405250919050565b600067ffffffffffffffff821115610a0b57600080fd5b602082029050602081019050919050565b6000602082019050919050565b600081519050919050565b6000602082019050919050565b600073ffffffffffffffffffffffffffffffffffffffff82169050919050565b60008115159050919050565b6000819050919050565b600060ff82169050919050565b600073ffffffffffffffffffffffffffffffffffffffff82169050919050565b6000819050919050565b600060ff821690509190505600a265627a7a723058203f6ecea2cc3f2e2683aa5fb011aa1eebd4a4d27c0a91c9414e19e6655ed46cc56c6578706572696d656e74616cf50037",
  "source": "pragma solidity ^0.4.24;\npragma experimental ABIEncoderV2;\n\n\ncontract BallotableContents {\n\n    struct Ballot {\n        EvaluationScore evaluationScore;\n        uint stakingAmount;     // [wei]\n        address user;\n        uint createdAt;\n    }\n\n    struct EvaluationScore {\n        uint8 accuracy;\n        uint8 relevant;\n    }\n\n    struct Reward {\n        address targetUser;\n        uint amount;    // [wei]\n    }\n\n    mapping (uint => Ballot[]) private contentsWithBallot;\n    mapping (uint => bool) public contentsStatus;\n\n    modifier isOpen(uint contentID) {\n        require(\n            contentsStatus[contentID],\n            \"This content is already finalized.\"\n        );\n        _;\n    }\n\n    function getBallots(\n        uint contentID\n        ) public view returns(Ballot[]) {\n        return contentsWithBallot[contentID];\n    }\n\n    function ballot(\n        uint contentID, uint8 accuracy, uint8 relevant, uint timestamp\n        ) public payable isOpen(contentID) {\n\n        EvaluationScore memory _score = EvaluationScore({\n            accuracy: accuracy,\n            relevant: relevant\n        });\n\n        Ballot memory _ballot = Ballot({\n            evaluationScore: _score,\n            stakingAmount: msg.value,\n            user: msg.sender,\n            createdAt: timestamp\n        });\n\n        contentsWithBallot[contentID].push(_ballot);\n    }\n\n    function sendRewards(uint contentID, Reward[] rewards) public isOpen(contentID) {\n        contentsStatus[contentID] = false;\n        \n        for (uint i=0; i < rewards.length; i++) {\n            Reward memory _reward = rewards[i];\n            _reward.targetUser.transfer(_reward.amount);\n        }\n    }\n}",
  "sourcePath": "/Users/kenichi/Repository/ETHSF_streamfilter/channels/contracts/BallotableContents.sol",
  "compiler": {
    "name": "solc",
    "version": "0.4.24+commit.e67f0147.Linux.g++"
  },
  "schemaVersion": "3.0.0-beta.1",
  "updatedAt": "2018-10-06T13:58:24.954Z"
}