{
  "contractName": "BallotableContents",
  "abi": [
    {
      "constant": true,
      "inputs": [
        {
          "name": "",
          "type": "uint256"
        }
      ],
      "name": "contentsFinalizedStatus",
      "outputs": [
        {
          "name": "",
          "type": "bool"
        }
      ],
      "payable": false,
      "stateMutability": "view",
      "type": "function"
    },
    {
      "constant": true,
      "inputs": [
        {
          "name": "contentID",
          "type": "uint256"
        }
      ],
      "name": "getBallots",
      "outputs": [
        {
          "components": [
            {
              "components": [
                {
                  "name": "accuracy",
                  "type": "uint8"
                },
                {
                  "name": "relevant",
                  "type": "uint8"
                }
              ],
              "name": "evaluationScore",
              "type": "tuple"
            },
            {
              "name": "stakingAmount",
              "type": "uint256"
            },
            {
              "name": "user",
              "type": "address"
            },
            {
              "name": "createdAt",
              "type": "uint256"
            }
          ],
          "name": "",
          "type": "tuple[]"
        }
      ],
      "payable": false,
      "stateMutability": "view",
      "type": "function"
    },
    {
      "constant": false,
      "inputs": [
        {
          "name": "contentID",
          "type": "uint256"
        },
        {
          "name": "accuracy",
          "type": "uint8"
        },
        {
          "name": "relevant",
          "type": "uint8"
        },
        {
          "name": "timestamp",
          "type": "uint256"
        }
      ],
      "name": "ballot",
      "outputs": [],
      "payable": true,
      "stateMutability": "payable",
      "type": "function"
    },
    {
      "constant": false,
      "inputs": [
        {
          "name": "contentID",
          "type": "uint256"
        },
        {
          "components": [
            {
              "name": "targetUser",
              "type": "address"
            },
            {
              "name": "amount",
              "type": "uint256"
            }
          ],
          "name": "rewards",
          "type": "tuple[]"
        }
      ],
      "name": "sendRewards",
      "outputs": [],
      "payable": false,
      "stateMutability": "nonpayable",
      "type": "function"
    }
  ],
  "bytecode": "0x608060405234801561001057600080fd5b50610af6806100206000396000f300608060405260043610610062576000357c0100000000000000000000000000000000000000000000000000000000900463ffffffff1680632fa55d5f146100675780639989763014610090578063aa25534c146100cd578063fb7344d0146100e9575b600080fd5b34801561007357600080fd5b5061008e6004803603610089919081019061073c565b610126565b005b34801561009c57600080fd5b506100b760048036036100b29190810190610713565b61024a565b6040516100c4919061098d565b60405180910390f35b6100e760048036036100e29190810190610790565b61026a565b005b3480156100f557600080fd5b50610110600480360361010b9190810190610713565b610427565b60405161011d919061096b565b60405180910390f35b6000610130610551565b836001600082815260200190815260200160002060009054906101000a900460ff16151515610194576040517f08c379a000000000000000000000000000000000000000000000000000000000815260040161018b906109a8565b60405180910390fd5b600180600087815260200190815260200160002060006101000a81548160ff021916908315150217905550600092505b83518310156102435783838151811015156101db57fe5b906020019060200201519150816000015173ffffffffffffffffffffffffffffffffffffffff166108fc83602001519081150290604051600060405180830381858888f19350505050158015610235573d6000803e3d6000fd5b5082806001019350506101c4565b5050505050565b60016020528060005260406000206000915054906101000a900460ff1681565b610272610581565b61027a6105a1565b856001600082815260200190815260200160002060009054906101000a900460ff161515156102de576040517f08c379a00000000000000000000000000000000000000000000000000000000081526004016102d5906109a8565b60405180910390fd5b60408051908101604052808760ff1681526020018660ff1681525092506080604051908101604052808481526020013481526020013373ffffffffffffffffffffffffffffffffffffffff168152602001858152509150600080888152602001908152602001600020829080600181540180825580915050906001820390600052602060002090600402016000909192909190915060008201518160000160008201518160000160006101000a81548160ff021916908360ff16021790555060208201518160000160016101000a81548160ff021916908360ff16021790555050506020820151816001015560408201518160020160006101000a81548173ffffffffffffffffffffffffffffffffffffffff021916908373ffffffffffffffffffffffffffffffffffffffff1602179055506060820151816003015550505050505050505050565b6060600080838152602001908152602001600020805480602002602001604051908101604052809291908181526020016000905b82821015610546578382906000526020600020906004020160806040519081016040529081600082016040805190810160405290816000820160009054906101000a900460ff1660ff1660ff1681526020016000820160019054906101000a900460ff1660ff1660ff16815250508152602001600182015481526020016002820160009054906101000a900473ffffffffffffffffffffffffffffffffffffffff1673ffffffffffffffffffffffffffffffffffffffff1673ffffffffffffffffffffffffffffffffffffffff1681526020016003820154815250508152602001906001019061045b565b505050509050919050565b6040805190810160405280600073ffffffffffffffffffffffffffffffffffffffff168152602001600081525090565b6040805190810160405280600060ff168152602001600060ff1681525090565b60a0604051908101604052806105b56105e6565b815260200160008152602001600073ffffffffffffffffffffffffffffffffffffffff168152602001600081525090565b6040805190810160405280600060ff168152602001600060ff1681525090565b60006106128235610a85565b905092915050565b600082601f830112151561062d57600080fd5b813561064061063b826109f5565b6109c8565b9150818183526020840193506020810190508385604084028201111561066557600080fd5b60005b83811015610695578161067b888261069f565b845260208401935060408301925050600181019050610668565b5050505092915050565b6000604082840312156106b157600080fd5b6106bb60406109c8565b905060006106cb84828501610606565b60008301525060206106df848285016106eb565b60208301525092915050565b60006106f78235610aa5565b905092915050565b600061070b8235610aaf565b905092915050565b60006020828403121561072557600080fd5b6000610733848285016106eb565b91505092915050565b6000806040838503121561074f57600080fd5b600061075d858286016106eb565b925050602083013567ffffffffffffffff81111561077a57600080fd5b6107868582860161061a565b9150509250929050565b600080600080608085870312156107a657600080fd5b60006107b4878288016106eb565b94505060206107c5878288016106ff565b93505060406107d6878288016106ff565b92505060606107e7878288016106eb565b91505092959194509250565b6107fc81610a42565b82525050565b600061080d82610a2a565b80845260208401935061081f83610a1d565b60005b82811015610851576108358683516108c9565b61083e82610a35565b915060a086019550600181019050610822565b50849250505092915050565b61086681610a62565b82525050565b6000602282527f5468697320636f6e74656e7420697320616c72656164792066696e616c697a6560208301527f642e0000000000000000000000000000000000000000000000000000000000006040830152606082019050919050565b60a0820160008201516108df600085018261091e565b5060208201516108f2604085018261094d565b50604082015161090560608501826107f3565b506060820151610918608085018261094d565b50505050565b604082016000820151610934600085018261095c565b506020820151610947602085018261095c565b50505050565b61095681610a6e565b82525050565b61096581610a78565b82525050565b600060208201905081810360008301526109858184610802565b905092915050565b60006020820190506109a2600083018461085d565b92915050565b600060208201905081810360008301526109c18161086c565b9050919050565b6000604051905081810181811067ffffffffffffffff821117156109eb57600080fd5b8060405250919050565b600067ffffffffffffffff821115610a0c57600080fd5b602082029050602081019050919050565b6000602082019050919050565b600081519050919050565b6000602082019050919050565b600073ffffffffffffffffffffffffffffffffffffffff82169050919050565b60008115159050919050565b6000819050919050565b600060ff82169050919050565b600073ffffffffffffffffffffffffffffffffffffffff82169050919050565b6000819050919050565b600060ff821690509190505600a265627a7a72305820aedba865aa83987a5eef114984f123cae376d3757a0e7974f7c5be67adcb37556c6578706572696d656e74616cf50037",
  "source": "pragma solidity ^0.4.24;\npragma experimental ABIEncoderV2;\n\n\ncontract BallotableContents {\n\n    struct Ballot {\n        EvaluationScore evaluationScore;\n        uint stakingAmount;     // [wei]\n        address user;\n        uint createdAt;\n    }\n\n    struct EvaluationScore {\n        uint8 accuracy;\n        uint8 relevant;\n    }\n\n    struct Reward {\n        address targetUser;\n        uint amount;    // [wei]\n    }\n\n    mapping (uint => Ballot[]) private contentsWithBallot;\n    mapping (uint => bool) public contentsFinalizedStatus;\n\n    modifier isOpen(uint contentID) {\n        require(\n            !contentsFinalizedStatus[contentID],\n            \"This content is already finalized.\"\n        );\n        _;\n    }\n\n    function getBallots(\n        uint contentID\n        ) public view returns(Ballot[]) {\n        return contentsWithBallot[contentID];\n    }\n\n    function ballot(\n        uint contentID, uint8 accuracy, uint8 relevant, uint timestamp\n        ) public payable isOpen(contentID) {\n\n        EvaluationScore memory _score = EvaluationScore({\n            accuracy: accuracy,\n            relevant: relevant\n        });\n\n        Ballot memory _ballot = Ballot({\n            evaluationScore: _score,\n            stakingAmount: msg.value,\n            user: msg.sender,\n            createdAt: timestamp\n        });\n\n        contentsWithBallot[contentID].push(_ballot);\n    }\n\n    function sendRewards(uint contentID, Reward[] rewards) public isOpen(contentID) {\n        contentsFinalizedStatus[contentID] = true;\n\n        for (uint i=0; i < rewards.length; i++) {\n            Reward memory _reward = rewards[i];\n            _reward.targetUser.transfer(_reward.amount);\n        }\n    }\n}\n \n",
  "sourcePath": "/home/ubuntu/my_workspace/streamfilter/channels/contracts/BallotableContents.sol",
  "compiler": {
    "name": "solc",
    "version": "0.4.24+commit.e67f0147.Emscripten.clang"
  },
  "schemaVersion": "2.0.1",
  "updatedAt": "2018-10-06T16:00:54.867Z"
}