{
  "contractName": "BallotableContents",
  "abi": [
    {
      "constant": true,
      "inputs": [
        {
          "name": "",
          "type": "uint256"
        }
      ],
      "name": "contentsFinalizedStatus",
      "outputs": [
        {
          "name": "",
          "type": "bool"
        }
      ],
      "payable": false,
      "stateMutability": "view",
      "type": "function"
    },
    {
      "constant": true,
      "inputs": [
        {
          "name": "",
          "type": "uint256"
        }
      ],
      "name": "contents",
      "outputs": [
        {
          "name": "accuracyScore",
          "type": "uint8"
        },
        {
          "name": "status",
          "type": "uint8"
        },
        {
          "name": "ballotCount",
          "type": "uint16"
        },
        {
          "name": "stakedAmount",
          "type": "uint256"
        },
        {
          "name": "closeAt",
          "type": "uint256"
        }
      ],
      "payable": false,
      "stateMutability": "view",
      "type": "function"
    },
    {
      "constant": true,
      "inputs": [
        {
          "name": "contentID",
          "type": "uint256"
        }
      ],
      "name": "getBallots",
      "outputs": [
        {
          "components": [
            {
              "components": [
                {
                  "name": "accuracy",
                  "type": "uint8"
                },
                {
                  "name": "relevant",
                  "type": "uint8"
                }
              ],
              "name": "evaluationScore",
              "type": "tuple"
            },
            {
              "name": "stakingAmount",
              "type": "uint256"
            },
            {
              "name": "player",
              "type": "address"
            },
            {
              "name": "createdAt",
              "type": "uint256"
            }
          ],
          "name": "",
          "type": "tuple[]"
        }
      ],
      "payable": false,
      "stateMutability": "view",
      "type": "function"
    },
    {
      "constant": true,
      "inputs": [
        {
          "name": "contentID",
          "type": "uint256"
        }
      ],
      "name": "getAccuracyScore",
      "outputs": [
        {
          "name": "",
          "type": "uint8"
        }
      ],
      "payable": false,
      "stateMutability": "view",
      "type": "function"
    },
    {
      "constant": false,
      "inputs": [
        {
          "name": "contentID",
          "type": "uint256"
        },
        {
          "name": "accuracy",
          "type": "uint8"
        },
        {
          "name": "relevant",
          "type": "uint8"
        },
        {
          "name": "timestamp",
          "type": "uint256"
        }
      ],
      "name": "ballot",
      "outputs": [],
      "payable": true,
      "stateMutability": "payable",
      "type": "function"
    },
    {
      "constant": false,
      "inputs": [
        {
          "name": "contentID",
          "type": "uint256"
        }
      ],
      "name": "calcScoreAndSendRewardsIfNeeded",
      "outputs": [],
      "payable": false,
      "stateMutability": "nonpayable",
      "type": "function"
    },
    {
      "constant": true,
      "inputs": [
        {
          "name": "contentID",
          "type": "uint256"
        }
      ],
      "name": "isClosed",
      "outputs": [
        {
          "name": "",
          "type": "bool"
        }
      ],
      "payable": false,
      "stateMutability": "view",
      "type": "function"
    }
  ],
  "bytecode": "0x608060405234801561001057600080fd5b506116c0806100206000396000f300608060405260043610610083576000357c0100000000000000000000000000000000000000000000000000000000900463ffffffff1680639989763014610088578063aa25534c146100c5578063b5ecf912146100e1578063d5c78a2814610122578063e8a9f65e1461015f578063ef4a61921461019c578063fb7344d0146101c5575b600080fd5b34801561009457600080fd5b506100af60048036036100aa9190810190611267565b610202565b6040516100bc9190611508565b60405180910390f35b6100df60048036036100da9190810190611290565b610222565b005b3480156100ed57600080fd5b5061010860048036036101039190810190611267565b6108ee565b60405161011995949392919061157e565b60405180910390f35b34801561012e57600080fd5b5061014960048036036101449190810190611267565b61094c565b6040516101569190611508565b60405180910390f35b34801561016b57600080fd5b5061018660048036036101819190810190611267565b610a04565b6040516101939190611563565b60405180910390f35b3480156101a857600080fd5b506101c360048036036101be9190810190611267565b610a31565b005b3480156101d157600080fd5b506101ec60048036036101e79190810190611267565b610c72565b6040516101f991906114e6565b60405180910390f35b60046020528060005260406000206000915054906101000a900460ff1681565b61022a611178565b610232611198565b600061023c6111dd565b6000886004600082815260200190815260200160002060009054906101000a900460ff161515156102a2576040517f08c379a000000000000000000000000000000000000000000000000000000000815260040161029990611523565b60405180910390fd5b896001600082815260200190815260200160002060003373ffffffffffffffffffffffffffffffffffffffff1673ffffffffffffffffffffffffffffffffffffffff16815260200190815260200160002060009054906101000a900460ff16151515610343576040517f08c379a000000000000000000000000000000000000000000000000000000000815260040161033a90611543565b60405180910390fd5b60018060008d815260200190815260200160002060003373ffffffffffffffffffffffffffffffffffffffff1673ffffffffffffffffffffffffffffffffffffffff16815260200190815260200160002060006101000a81548160ff02191690831515021790555060408051908101604052808b60ff1681526020018a60ff1681525096506080604051908101604052808881526020013481526020013373ffffffffffffffffffffffffffffffffffffffff1681526020018981525095506000808c8152602001908152602001600020869080600181540180825580915050906001820390600052602060002090600402016000909192909190915060008201518160000160008201518160000160006101000a81548160ff021916908360ff16021790555060208201518160000160016101000a81548160ff021916908360ff16021790555050506020820151816001015560408201518160020160006101000a81548173ffffffffffffffffffffffffffffffffffffffff021916908373ffffffffffffffffffffffffffffffffffffffff16021790555060608201518160030155505050600360008c81526020019081526020016000208790806001815401808255809150509060018203906000526020600020016000909192909190915060008201518160000160006101000a81548160ff021916908360ff16021790555060208201518160000160016101000a81548160ff021916908360ff1602179055505050506000600560008d815260200190815260200160002060000160029054906101000a900461ffff1661ffff1614151561068357600560008c8152602001908152602001600020945060018560000160028282829054906101000a900461ffff160192506101000a81548161ffff021916908361ffff1602179055503485600101600082825401925050819055506106008b61094c565b151561067e57600260008c81526020019081526020016000203390806001815401808255809150509060018203906000526020600020016000909192909190916101000a81548173ffffffffffffffffffffffffffffffffffffffff021916908373ffffffffffffffffffffffffffffffffffffffff160217905550505b6107d6565b60a060405190810160405280600060ff168152602001600060018111156106a657fe5b8152602001600161ffff1681526020013481526020016104b04201815250935083600560008d815260200190815260200160002060008201518160000160006101000a81548160ff021916908360ff16021790555060208201518160000160016101000a81548160ff0219169083600181111561071f57fe5b021790555060408201518160000160026101000a81548161ffff021916908361ffff1602179055506060820151816001015560808201518160020155905050600260008c81526020019081526020016000203390806001815401808255809150509060018203906000526020600020016000909192909190916101000a81548173ffffffffffffffffffffffffffffffffffffffff021916908373ffffffffffffffffffffffffffffffffffffffff160217905550505b600560008c81526020019081526020016000209250858360030160003373ffffffffffffffffffffffffffffffffffffffff1673ffffffffffffffffffffffffffffffffffffffff16815260200190815260200160002060008201518160000160008201518160000160006101000a81548160ff021916908360ff16021790555060208201518160000160016101000a81548160ff021916908360ff16021790555050506020820151816001015560408201518160020160006101000a81548173ffffffffffffffffffffffffffffffffffffffff021916908373ffffffffffffffffffffffffffffffffffffffff160217905550606082015181600301559050506108e18b610a31565b5050505050505050505050565b60056020528060005260406000206000915090508060000160009054906101000a900460ff16908060000160019054906101000a900460ff16908060000160029054906101000a900461ffff16908060010154908060020154905085565b60006109566111dd565b6005600084815260200190815260200160002060a060405190810160405290816000820160009054906101000a900460ff1660ff1660ff1681526020016000820160019054906101000a900460ff1660018111156109b057fe5b60018111156109bb57fe5b81526020016000820160029054906101000a900461ffff1661ffff1661ffff16815260200160018201548152602001600282015481525050905080608001514211915050919050565b60006005600083815260200190815260200160002060000160009054906101000a900460ff169050919050565b6060610a3b611178565b60006060846004600082815260200190815260200160002060009054906101000a900460ff16151515610aa3576040517f08c379a0000000000000000000000000000000000000000000000000000000008152600401610a9a90611523565b60405180910390fd5b60036000878152602001908152602001600020805480602002602001604051908101604052809291908181526020016000905b82821015610b3e578382906000526020600020016040805190810160405290816000820160009054906101000a900460ff1660ff1660ff1681526020016000820160019054906101000a900460ff1660ff1660ff168152505081526020019060010190610ad6565b505050509450610b4d85610d9c565b935060056000878152602001908152602001600020925083600001518360000160006101000a81548160ff021916908360ff160217905550610b8e8661094c565b8015610bb1575060038360000160029054906101000a900461ffff1661ffff1610155b15610c695760026000878152602001908152602001600020805480602002602001604051908101604052809291908181526020018280548015610c4957602002820191906000526020600020905b8160009054906101000a900473ffffffffffffffffffffffffffffffffffffffff1673ffffffffffffffffffffffffffffffffffffffff1681526020019060010190808311610bff575b50505050509150610c5b868584610e85565b610c6486611149565b610c6a565b5b505050505050565b6060600080838152602001908152602001600020805480602002602001604051908101604052809291908181526020016000905b82821015610d91578382906000526020600020906004020160806040519081016040529081600082016040805190810160405290816000820160009054906101000a900460ff1660ff1660ff1681526020016000820160019054906101000a900460ff1660ff1660ff16815250508152602001600182015481526020016002820160009054906101000a900473ffffffffffffffffffffffffffffffffffffffff1673ffffffffffffffffffffffffffffffffffffffff1673ffffffffffffffffffffffffffffffffffffffff16815260200160038201548152505081526020019060010190610ca6565b505050509050919050565b610da4611178565b600080600080600080610db5611178565b600096506000955088519450600093505b8461ffff168461ffff161015610e3157888461ffff16815181101515610de857fe5b906020019060200201516000015160ff1687019650888461ffff16815181101515610e0f57fe5b906020019060200201516020015160ff16860195508380600101945050610dc6565b8460010b8760010b811515610e4257fe5b0592508460010b8660010b811515610e5657fe5b05915060408051908101604052808460ff1681526020018360ff16815250905080975050505050505050919050565b6000806000806000610e95611198565b6000806000600560008d8152602001908152602001600020985089519650600095505b8661ffff16861015611073578986815181101515610ed257fe5b9060200190602002015194508860030160008673ffffffffffffffffffffffffffffffffffffffff1673ffffffffffffffffffffffffffffffffffffffff16815260200190815260200160002060806040519081016040529081600082016040805190810160405290816000820160009054906101000a900460ff1660ff1660ff1681526020016000820160019054906101000a900460ff1660ff1660ff16815250508152602001600182015481526020016002820160009054906101000a900473ffffffffffffffffffffffffffffffffffffffff1673ffffffffffffffffffffffffffffffffffffffff1673ffffffffffffffffffffffffffffffffffffffff16815260200160038201548152505093508a6000015160ff1684600001516000015160ff1610151561106657878590806001815401808255809150509060018203906000526020600020016000909192909190916101000a81548173ffffffffffffffffffffffffffffffffffffffff021916908373ffffffffffffffffffffffffffffffffffffffff160217905550505b8580600101965050610eb8565b8780549050925060008361ffff16111561113b578261ffff16896001015481151561109a57fe5b049150600090505b8261ffff1681101561113a5787818154811015156110bc57fe5b9060005260206000200160009054906101000a900473ffffffffffffffffffffffffffffffffffffffff1673ffffffffffffffffffffffffffffffffffffffff166108fc839081150290604051600060405180830381858888f1935050505015801561112c573d6000803e3d6000fd5b5080806001019150506110a2565b5b505050505050505050505050565b60016004600083815260200190815260200160002060006101000a81548160ff02191690831515021790555050565b6040805190810160405280600060ff168152602001600060ff1681525090565b60a0604051908101604052806111ac61121f565b815260200160008152602001600073ffffffffffffffffffffffffffffffffffffffff168152602001600081525090565b60a060405190810160405280600060ff1681526020016000600181111561120057fe5b8152602001600061ffff16815260200160008152602001600081525090565b6040805190810160405280600060ff168152602001600060ff1681525090565b600061124b823561165d565b905092915050565b600061125f8235611667565b905092915050565b60006020828403121561127957600080fd5b60006112878482850161123f565b91505092915050565b600080600080608085870312156112a657600080fd5b60006112b48782880161123f565b94505060206112c587828801611253565b93505060406112d687828801611253565b92505060606112e78782880161123f565b91505092959194509250565b6112fc816115f6565b82525050565b600061130d826115de565b80845260208401935061131f836115d1565b60005b8281101561135157611335868351611435565b61133e826115e9565b915060a086019550600181019050611322565b50849250505092915050565b61136681611616565b82525050565b61137581611674565b82525050565b6000602282527f5468697320636f6e74656e7420697320616c72656164792066696e616c697a6560208301527f642e0000000000000000000000000000000000000000000000000000000000006040830152606082019050919050565b6000602782527f4f6e6c79206f6e652d74696d6520746f20746f2063616c6c207468697320667560208301527f6e6374696f6e2e000000000000000000000000000000000000000000000000006040830152606082019050919050565b60a08201600082015161144b600085018261148a565b50602082015161145e60408501826114c8565b50604082015161147160608501826112f3565b50606082015161148460808501826114c8565b50505050565b6040820160008201516114a060008501826114d7565b5060208201516114b360208501826114d7565b50505050565b6114c281611638565b82525050565b6114d181611646565b82525050565b6114e081611650565b82525050565b600060208201905081810360008301526115008184611302565b905092915050565b600060208201905061151d600083018461135d565b92915050565b6000602082019050818103600083015261153c8161137b565b9050919050565b6000602082019050818103600083015261155c816113d8565b9050919050565b600060208201905061157860008301846114d7565b92915050565b600060a08201905061159360008301886114d7565b6115a0602083018761136c565b6115ad60408301866114b9565b6115ba60608301856114c8565b6115c760808301846114c8565b9695505050505050565b6000602082019050919050565b600081519050919050565b6000602082019050919050565b600073ffffffffffffffffffffffffffffffffffffffff82169050919050565b60008115159050919050565b600060028210151561163057fe5b819050919050565b600061ffff82169050919050565b6000819050919050565b600060ff82169050919050565b6000819050919050565b600060ff82169050919050565b600061167f82611622565b90509190505600a265627a7a72305820bd272726663601a3235c90190c7ec6efc97f95501957883df675469ba0065ebd6c6578706572696d656e74616cf50037",
  "source": "pragma solidity ^0.4.24;\npragma experimental ABIEncoderV2;\n\n\ncontract BallotableContents {\n\n    struct Ballot {\n        EvaluationScore evaluationScore;\n        uint stakingAmount;     // [wei]\n        address player;\n        uint createdAt;\n    }\n\n    struct EvaluationScore {\n        uint8 accuracy;\n        uint8 relevant;\n    }\n\n    enum ContentStatus {\n        Live,\n        Closed\n    }\n\n    struct Content {\n        uint8 accuracyScore;\n        ContentStatus status;\n        uint16 ballotCount;\n        uint stakedAmount;   // [wei]\n        uint closeAt;\n        mapping ( address => Ballot) ballots;\n    }\n\n    struct Reward {\n        address targetPlayer;\n        uint amount;    // [wei]\n    }\n\n    mapping (uint => Ballot[]) private contentsWithBallot;\n    mapping (uint => mapping (address => bool)) private playersForExists;\n    mapping (uint => address[]) private rewardCandidatePlayers;\n    mapping (uint => EvaluationScore[]) private contentsWithEvaluationScore;\n    mapping (uint => bool) public contentsFinalizedStatus;\n    mapping (uint => Content) public contents;\n\n    modifier isOpen(uint contentID) {\n        require(\n            !contentsFinalizedStatus[contentID],\n            \"This content is already finalized.\"\n        );\n        _;\n    }\n\n    modifier onetimeOnly(uint contentID) {\n        require(\n            !playersForExists[contentID][msg.sender],\n            \"Only one-time to to call this function.\"\n        );\n        _;\n    }\n\n    function getBallots(\n        uint contentID\n        ) public view returns(Ballot[]) {\n        return contentsWithBallot[contentID];\n    }\n\n    function getAccuracyScore(uint contentID) public view returns(uint8) {\n        return contents[contentID].accuracyScore;\n    }\n\n    function ballot(\n        uint contentID, uint8 accuracy, uint8 relevant, uint timestamp\n        ) public payable \n        isOpen(contentID)\n        onetimeOnly(contentID)\n        {\n\n        playersForExists[contentID][msg.sender] = true;\n\n        EvaluationScore memory _score = EvaluationScore({\n            accuracy: accuracy,\n            relevant: relevant\n        });\n\n        Ballot memory _ballot = Ballot({\n            evaluationScore: _score,\n            stakingAmount: msg.value,\n            player: msg.sender,\n            createdAt: timestamp\n        });\n\n        contentsWithBallot[contentID].push(_ballot);\n        contentsWithEvaluationScore[contentID].push(_score);\n        \n        if (contents[contentID].ballotCount != 0) {\n            Content storage _content = contents[contentID];\n            _content.ballotCount += 1;\n            _content.stakedAmount += msg.value;\n            \n\n            if (!isClosed(contentID)) {\n                rewardCandidatePlayers[contentID].push(msg.sender);\n            }\n        } else {\n            Content memory _contentNew = Content({\n                accuracyScore: 0,\n                status: ContentStatus.Live,\n                ballotCount: 1,\n                stakedAmount: msg.value,\n                closeAt: now + 20 minutes\n            });\n            contents[contentID] = _contentNew;\n            rewardCandidatePlayers[contentID].push(msg.sender);\n        }\n        \n        Content storage __content = contents[contentID];\n        __content.ballots[msg.sender] = _ballot;\n\n        calcScoreAndSendRewardsIfNeeded(contentID);\n    }\n\n    function calcScoreAndSendRewardsIfNeeded(uint contentID) public isOpen(contentID) {\n        EvaluationScore[] memory _evaluations = contentsWithEvaluationScore[contentID];\n        EvaluationScore memory _evaluatedScore = calculateEvaluatedScore(_evaluations);\n\n        Content storage _content = contents[contentID];\n        _content.accuracyScore = _evaluatedScore.accuracy;\n\n        if (isClosed(contentID) && _content.ballotCount >= 3) {\n            address[] memory _rewardCandidatePlayers = rewardCandidatePlayers[contentID];\n            electContributorsAndCalcRewardsAndSend(\n                contentID,\n                _evaluatedScore, \n                _rewardCandidatePlayers);\n            \n            closeContent(contentID);\n        } else {\n            // TODO extend time?\n        }\n    }\n\n    function isClosed(uint contentID) public view returns(bool) {\n        Content memory _content = contents[contentID];\n        return now > _content.closeAt;\n    }\n\n    function closeContent(uint contentID) internal {\n        contentsFinalizedStatus[contentID] = true;\n    }\n\n    function electContributorsAndCalcRewardsAndSend(\n        uint contentID,\n        EvaluationScore _evaluatedScore,\n        address[] _candidatePlayers\n        ) internal {\n        \n        Content storage _content = contents[contentID];\n        address[] storage _electedPlayers;\n\n        uint16 _candidatePlayerslength = uint16(_candidatePlayers.length);\n        for (uint i=0; i < _candidatePlayerslength; i++) {\n            address _player = _candidatePlayers[i];\n            Ballot memory _ballot = _content.ballots[_player];\n            if (_ballot.evaluationScore.accuracy >= _evaluatedScore.accuracy) {\n                _electedPlayers.push(_player);\n            }\n        }\n\n        uint16 _electedPlayerslength = uint16(_electedPlayers.length);\n        if (_electedPlayerslength > 0) {\n            uint rewardAmountForEach = _content.stakedAmount / _electedPlayerslength;\n            for (uint j=0; j < _electedPlayerslength; j++) {\n                // Send reward.\n                _electedPlayers[j].transfer(rewardAmountForEach);\n            }\n        }\n    }\n\n    function calculateEvaluatedScore(\n        EvaluationScore[] _evaluations) \n        internal pure returns (EvaluationScore) {\n        int16 totalOfAccuracyScore = 0;\n        int16 totalOfRelevantScore = 0;\n        uint16 length = uint16(_evaluations.length);\n        for (uint16 i=0; i < length; i++) {\n            totalOfAccuracyScore += _evaluations[i].accuracy;\n            totalOfRelevantScore += _evaluations[i].relevant;\n        }\n        uint8 averageAccuracyScore = uint8(totalOfAccuracyScore / int16(length));\n        uint8 averageRelevantScore = uint8(totalOfRelevantScore / int16(length));\n        \n        EvaluationScore memory _evaluatedScore = EvaluationScore({\n            accuracy: averageAccuracyScore,\n            relevant: averageRelevantScore\n        });\n        return _evaluatedScore;\n    }\n}\n \n",
  "sourcePath": "/Users/kenichi/Repository/ETHSF_streamfilter/channels/contracts/BallotableContents.sol",
  "compiler": {
    "name": "solc",
    "version": "0.4.24+commit.e67f0147.Linux.g++"
  },
  "schemaVersion": "3.0.0-beta.1",
  "updatedAt": "2018-10-07T00:45:55.002Z"
}