{
  "contractName": "BallotableContents",
  "abi": [
    {
      "constant": true,
      "inputs": [
        {
          "name": "",
          "type": "uint256"
        }
      ],
      "name": "contentsFinalizedStatus",
      "outputs": [
        {
          "name": "",
          "type": "bool"
        }
      ],
      "payable": false,
      "stateMutability": "view",
      "type": "function"
    },
    {
      "constant": true,
      "inputs": [
        {
          "name": "",
          "type": "uint256"
        }
      ],
      "name": "contents",
      "outputs": [
        {
          "name": "accuracyScore",
          "type": "uint8"
        },
        {
          "name": "status",
          "type": "uint8"
        },
        {
          "name": "ballotCount",
          "type": "uint16"
        },
        {
          "name": "stakedAmount",
          "type": "uint256"
        },
        {
          "name": "closeAt",
          "type": "uint256"
        }
      ],
      "payable": false,
      "stateMutability": "view",
      "type": "function"
    },
    {
      "constant": true,
      "inputs": [
        {
          "name": "contentID",
          "type": "uint256"
        }
      ],
      "name": "getBallots",
      "outputs": [
        {
          "components": [
            {
              "components": [
                {
                  "name": "accuracy",
                  "type": "uint8"
                },
                {
                  "name": "relevant",
                  "type": "uint8"
                }
              ],
              "name": "evaluationScore",
              "type": "tuple"
            },
            {
              "name": "stakingAmount",
              "type": "uint256"
            },
            {
              "name": "player",
              "type": "address"
            },
            {
              "name": "createdAt",
              "type": "uint256"
            }
          ],
          "name": "",
          "type": "tuple[]"
        }
      ],
      "payable": false,
      "stateMutability": "view",
      "type": "function"
    },
    {
      "constant": true,
      "inputs": [
        {
          "name": "contentID",
          "type": "uint256"
        }
      ],
      "name": "getAccuracyScore",
      "outputs": [
        {
          "name": "",
          "type": "uint8"
        }
      ],
      "payable": false,
      "stateMutability": "view",
      "type": "function"
    },
    {
      "constant": true,
      "inputs": [
        {
          "name": "contentID",
          "type": "uint256"
        }
      ],
      "name": "getStakedAmount",
      "outputs": [
        {
          "name": "",
          "type": "uint256"
        }
      ],
      "payable": false,
      "stateMutability": "view",
      "type": "function"
    },
    {
      "constant": true,
      "inputs": [
        {
          "name": "contentID",
          "type": "uint256"
        }
      ],
      "name": "getBallotCount",
      "outputs": [
        {
          "name": "",
          "type": "uint256"
        }
      ],
      "payable": false,
      "stateMutability": "view",
      "type": "function"
    },
    {
      "constant": true,
      "inputs": [
        {
          "name": "contentID",
          "type": "uint256"
        }
      ],
      "name": "getRewardWonPlayers",
      "outputs": [
        {
          "name": "",
          "type": "address[]"
        }
      ],
      "payable": false,
      "stateMutability": "view",
      "type": "function"
    },
    {
      "constant": true,
      "inputs": [
        {
          "name": "contentID",
          "type": "uint256"
        }
      ],
      "name": "getCloseAt",
      "outputs": [
        {
          "name": "",
          "type": "uint256"
        }
      ],
      "payable": false,
      "stateMutability": "view",
      "type": "function"
    },
    {
      "constant": true,
      "inputs": [
        {
          "name": "contentID",
          "type": "uint256"
        }
      ],
      "name": "isClosed",
      "outputs": [
        {
          "name": "",
          "type": "bool"
        }
      ],
      "payable": false,
      "stateMutability": "view",
      "type": "function"
    },
    {
      "constant": false,
      "inputs": [
        {
          "name": "contentID",
          "type": "uint256"
        },
        {
          "name": "accuracy",
          "type": "uint8"
        },
        {
          "name": "relevant",
          "type": "uint8"
        },
        {
          "name": "timestamp",
          "type": "uint256"
        }
      ],
      "name": "ballot",
      "outputs": [],
      "payable": true,
      "stateMutability": "payable",
      "type": "function"
    },
    {
      "constant": false,
      "inputs": [
        {
          "name": "contentID",
          "type": "uint256"
        }
      ],
      "name": "calcScoreAndSendRewardsIfNeeded",
      "outputs": [],
      "payable": false,
      "stateMutability": "nonpayable",
      "type": "function"
    }
  ],
  "bytecode": "0x608060405234801561001057600080fd5b50611c8c806100206000396000f3006080604052600436106100af576000357c0100000000000000000000000000000000000000000000000000000000900463ffffffff1680635a5392be146100b457806399897630146100f15780639a008e891461012e5780639affc0751461016b578063aa25534c146101a8578063b5ecf912146101c4578063d5c78a2814610205578063e5b4afeb14610242578063e8a9f65e1461027f578063ef4a6192146102bc578063fb7344d0146102e5575b600080fd5b3480156100c057600080fd5b506100db60048036036100d69190810190611776565b610322565b6040516100e89190611aef565b60405180910390f35b3480156100fd57600080fd5b5061011860048036036101139190810190611776565b610342565b6040516101259190611a94565b60405180910390f35b34801561013a57600080fd5b5061015560048036036101509190810190611776565b610362565b6040516101629190611aef565b60405180910390f35b34801561017757600080fd5b50610192600480360361018d9190810190611776565b610394565b60405161019f9190611aef565b60405180910390f35b6101c260048036036101bd919081019061179f565b6103b4565b005b3480156101d057600080fd5b506101eb60048036036101e69190810190611776565b610a80565b6040516101fc959493929190611b25565b60405180910390f35b34801561021157600080fd5b5061022c60048036036102279190810190611776565b610ade565b6040516102399190611a94565b60405180910390f35b34801561024e57600080fd5b5061026960048036036102649190810190611776565b610bc6565b6040516102769190611a50565b60405180910390f35b34801561028b57600080fd5b506102a660048036036102a19190810190611776565b610c67565b6040516102b39190611b0a565b60405180910390f35b3480156102c857600080fd5b506102e360048036036102de9190810190611776565b610c94565b005b3480156102f157600080fd5b5061030c60048036036103079190810190611776565b610f00565b6040516103199190611a72565b60405180910390f35b600060066000838152602001908152602001600020600101549050919050565b60056020528060005260406000206000915054906101000a900460ff1681565b60006006600083815260200190815260200160002060000160029054906101000a900461ffff1661ffff169050919050565b600060066000838152602001908152602001600020600201549050919050565b6103bc6115ba565b6103c46115da565b60006103ce61161f565b6000886005600082815260200190815260200160002060009054906101000a900460ff16151515610434576040517f08c379a000000000000000000000000000000000000000000000000000000000815260040161042b90611aaf565b60405180910390fd5b896001600082815260200190815260200160002060003373ffffffffffffffffffffffffffffffffffffffff1673ffffffffffffffffffffffffffffffffffffffff16815260200190815260200160002060009054906101000a900460ff161515156104d5576040517f08c379a00000000000000000000000000000000000000000000000000000000081526004016104cc90611acf565b60405180910390fd5b60018060008d815260200190815260200160002060003373ffffffffffffffffffffffffffffffffffffffff1673ffffffffffffffffffffffffffffffffffffffff16815260200190815260200160002060006101000a81548160ff02191690831515021790555060408051908101604052808b60ff1681526020018a60ff1681525096506080604051908101604052808881526020013481526020013373ffffffffffffffffffffffffffffffffffffffff1681526020018981525095506000808c8152602001908152602001600020869080600181540180825580915050906001820390600052602060002090600402016000909192909190915060008201518160000160008201518160000160006101000a81548160ff021916908360ff16021790555060208201518160000160016101000a81548160ff021916908360ff16021790555050506020820151816001015560408201518160020160006101000a81548173ffffffffffffffffffffffffffffffffffffffff021916908373ffffffffffffffffffffffffffffffffffffffff16021790555060608201518160030155505050600460008c81526020019081526020016000208790806001815401808255809150509060018203906000526020600020016000909192909190915060008201518160000160006101000a81548160ff021916908360ff16021790555060208201518160000160016101000a81548160ff021916908360ff1602179055505050506000600660008d815260200190815260200160002060000160029054906101000a900461ffff1661ffff1614151561081557600660008c8152602001908152602001600020945060018560000160028282829054906101000a900461ffff160192506101000a81548161ffff021916908361ffff1602179055503485600101600082825401925050819055506107928b610ade565b151561081057600260008c81526020019081526020016000203390806001815401808255809150509060018203906000526020600020016000909192909190916101000a81548173ffffffffffffffffffffffffffffffffffffffff021916908373ffffffffffffffffffffffffffffffffffffffff160217905550505b610968565b60a060405190810160405280600060ff1681526020016000600181111561083857fe5b8152602001600161ffff1681526020013481526020016104b04201815250935083600660008d815260200190815260200160002060008201518160000160006101000a81548160ff021916908360ff16021790555060208201518160000160016101000a81548160ff021916908360018111156108b157fe5b021790555060408201518160000160026101000a81548161ffff021916908361ffff1602179055506060820151816001015560808201518160020155905050600260008c81526020019081526020016000203390806001815401808255809150509060018203906000526020600020016000909192909190916101000a81548173ffffffffffffffffffffffffffffffffffffffff021916908373ffffffffffffffffffffffffffffffffffffffff160217905550505b600660008c81526020019081526020016000209250858360030160003373ffffffffffffffffffffffffffffffffffffffff1673ffffffffffffffffffffffffffffffffffffffff16815260200190815260200160002060008201518160000160008201518160000160006101000a81548160ff021916908360ff16021790555060208201518160000160016101000a81548160ff021916908360ff16021790555050506020820151816001015560408201518160020160006101000a81548173ffffffffffffffffffffffffffffffffffffffff021916908373ffffffffffffffffffffffffffffffffffffffff16021790555060608201518160030155905050610a738b610c94565b5050505050505050505050565b60066020528060005260406000206000915090508060000160009054906101000a900460ff16908060000160019054906101000a900460ff16908060000160029054906101000a900461ffff16908060010154908060020154905085565b6000610ae861161f565b6005600084815260200190815260200160002060009054906101000a900460ff1615610b175760019150610bc0565b6006600084815260200190815260200160002060a060405190810160405290816000820160009054906101000a900460ff1660ff1660ff1681526020016000820160019054906101000a900460ff166001811115610b7157fe5b6001811115610b7c57fe5b81526020016000820160029054906101000a900461ffff1661ffff1661ffff1681526020016001820154815260200160028201548152505090508060800151421191505b50919050565b606060036000838152602001908152602001600020805480602002602001604051908101604052809291908181526020018280548015610c5b57602002820191906000526020600020905b8160009054906101000a900473ffffffffffffffffffffffffffffffffffffffff1673ffffffffffffffffffffffffffffffffffffffff1681526020019060010190808311610c11575b50505050509050919050565b60006006600083815260200190815260200160002060000160009054906101000a900460ff169050919050565b6060610c9e6115ba565b60006060846005600082815260200190815260200160002060009054906101000a900460ff16151515610d06576040517f08c379a0000000000000000000000000000000000000000000000000000000008152600401610cfd90611aaf565b60405180910390fd5b60046000878152602001908152602001600020805480602002602001604051908101604052809291908181526020016000905b82821015610da1578382906000526020600020016040805190810160405290816000820160009054906101000a900460ff1660ff1660ff1681526020016000820160019054906101000a900460ff1660ff1660ff168152505081526020019060010190610d39565b505050509450610db08561102a565b935060066000878152602001908152602001600020925083600001518360000160006101000a81548160ff021916908360ff160217905550610df186610ade565b8015610e14575060038360000160029054906101000a900461ffff1661ffff1610155b80610e365750600a8360000160029054906101000a900461ffff1661ffff1610155b15610ef75760026000878152602001908152602001600020805480602002602001604051908101604052809291908181526020018280548015610ece57602002820191906000526020600020905b8160009054906101000a900473ffffffffffffffffffffffffffffffffffffffff1673ffffffffffffffffffffffffffffffffffffffff1681526020019060010190808311610e84575b50505050509150610ee0868584611113565b610ee9866113c2565b610ef28661158b565b610ef8565b5b505050505050565b6060600080838152602001908152602001600020805480602002602001604051908101604052809291908181526020016000905b8282101561101f578382906000526020600020906004020160806040519081016040529081600082016040805190810160405290816000820160009054906101000a900460ff1660ff1660ff1681526020016000820160019054906101000a900460ff1660ff1660ff16815250508152602001600182015481526020016002820160009054906101000a900473ffffffffffffffffffffffffffffffffffffffff1673ffffffffffffffffffffffffffffffffffffffff1673ffffffffffffffffffffffffffffffffffffffff16815260200160038201548152505081526020019060010190610f34565b505050509050919050565b6110326115ba565b6000806000806000806110436115ba565b600096506000955088519450600093505b8461ffff168461ffff1610156110bf57888461ffff1681518110151561107657fe5b906020019060200201516000015160ff1687019650888461ffff1681518110151561109d57fe5b906020019060200201516020015160ff16860195508380600101945050611054565b8460010b8760010b8115156110d057fe5b0592508460010b8660010b8115156110e457fe5b05915060408051908101604052808460ff1681526020018360ff16815250905080975050505050505050919050565b600080606060008060006111256115da565b896005600082815260200190815260200160002060009054906101000a900460ff16151515611189576040517f08c379a000000000000000000000000000000000000000000000000000000000815260040161118090611aaf565b60405180910390fd5b600660008c81526020019081526020016000209750885196508661ffff166040519080825280602002602001820160405280156111d55781602001602082028038833980820191505090505b50955060009450600093505b8661ffff1684101561138d5788848151811015156111fb57fe5b9060200190602002015192508760030160008473ffffffffffffffffffffffffffffffffffffffff1673ffffffffffffffffffffffffffffffffffffffff16815260200190815260200160002060806040519081016040529081600082016040805190810160405290816000820160009054906101000a900460ff1660ff1660ff1681526020016000820160019054906101000a900460ff1660ff1660ff16815250508152602001600182015481526020016002820160009054906101000a900473ffffffffffffffffffffffffffffffffffffffff1673ffffffffffffffffffffffffffffffffffffffff1673ffffffffffffffffffffffffffffffffffffffff1681526020016003820154815250509150896000015160ff1682600001516000015160ff1611156113805782868661ffff1681518110151561133b57fe5b9060200190602002019073ffffffffffffffffffffffffffffffffffffffff16908173ffffffffffffffffffffffffffffffffffffffff168152505084806001019550505b83806001019450506111e1565b85600360008d815260200190815260200160002090805190602001906113b4929190611661565b505050505050505050505050565b600060606000806000856005600082815260200190815260200160002060009054906101000a900460ff1615151561142f576040517f08c379a000000000000000000000000000000000000000000000000000000000815260040161142690611aaf565b60405180910390fd5b600660008881526020019081526020016000209550600360008881526020019081526020016000208054806020026020016040519081016040528092919081815260200182805480156114d757602002820191906000526020600020905b8160009054906101000a900473ffffffffffffffffffffffffffffffffffffffff1673ffffffffffffffffffffffffffffffffffffffff168152602001906001019080831161148d575b505050505094508451935060008461ffff161115611582578361ffff16866001015481151561150257fe5b049250600091505b8361ffff1682101561158157848281518110151561152457fe5b9060200190602002015173ffffffffffffffffffffffffffffffffffffffff166108fc849081150290604051600060405180830381858888f19350505050158015611573573d6000803e3d6000fd5b50818060010192505061150a565b5b50505050505050565b60016005600083815260200190815260200160002060006101000a81548160ff02191690831515021790555050565b6040805190810160405280600060ff168152602001600060ff1681525090565b60a0604051908101604052806115ee6116eb565b815260200160008152602001600073ffffffffffffffffffffffffffffffffffffffff168152602001600081525090565b60a060405190810160405280600060ff1681526020016000600181111561164257fe5b8152602001600061ffff16815260200160008152602001600081525090565b8280548282559060005260206000209081019282156116da579160200282015b828111156116d95782518260006101000a81548173ffffffffffffffffffffffffffffffffffffffff021916908373ffffffffffffffffffffffffffffffffffffffff16021790555091602001919060010190611681565b5b5090506116e7919061170b565b5090565b6040805190810160405280600060ff168152602001600060ff1681525090565b61174b91905b8082111561174757600081816101000a81549073ffffffffffffffffffffffffffffffffffffffff021916905550600101611711565b5090565b90565b600061175a8235611c29565b905092915050565b600061176e8235611c33565b905092915050565b60006020828403121561178857600080fd5b60006117968482850161174e565b91505092915050565b600080600080608085870312156117b557600080fd5b60006117c38782880161174e565b94505060206117d487828801611762565b93505060406117e587828801611762565b92505060606117f68782880161174e565b91505092959194509250565b61180b81611bc2565b82525050565b600061181c82611b92565b80845260208401935061182e83611b78565b60005b8281101561186057611844868351611802565b61184d82611ba8565b9150602086019550600181019050611831565b50849250505092915050565b600061187782611b9d565b80845260208401935061188983611b85565b60005b828110156118bb5761189f86835161199f565b6118a882611bb5565b915060a08601955060018101905061188c565b50849250505092915050565b6118d081611be2565b82525050565b6118df81611c40565b82525050565b6000602282527f5468697320636f6e74656e7420697320616c72656164792066696e616c697a6560208301527f642e0000000000000000000000000000000000000000000000000000000000006040830152606082019050919050565b6000602782527f4f6e6c79206f6e652d74696d6520746f20746f2063616c6c207468697320667560208301527f6e6374696f6e2e000000000000000000000000000000000000000000000000006040830152606082019050919050565b60a0820160008201516119b560008501826119f4565b5060208201516119c86040850182611a32565b5060408201516119db6060850182611802565b5060608201516119ee6080850182611a32565b50505050565b604082016000820151611a0a6000850182611a41565b506020820151611a1d6020850182611a41565b50505050565b611a2c81611c04565b82525050565b611a3b81611c12565b82525050565b611a4a81611c1c565b82525050565b60006020820190508181036000830152611a6a8184611811565b905092915050565b60006020820190508181036000830152611a8c818461186c565b905092915050565b6000602082019050611aa960008301846118c7565b92915050565b60006020820190508181036000830152611ac8816118e5565b9050919050565b60006020820190508181036000830152611ae881611942565b9050919050565b6000602082019050611b046000830184611a32565b92915050565b6000602082019050611b1f6000830184611a41565b92915050565b600060a082019050611b3a6000830188611a41565b611b4760208301876118d6565b611b546040830186611a23565b611b616060830185611a32565b611b6e6080830184611a32565b9695505050505050565b6000602082019050919050565b6000602082019050919050565b600081519050919050565b600081519050919050565b6000602082019050919050565b6000602082019050919050565b600073ffffffffffffffffffffffffffffffffffffffff82169050919050565b60008115159050919050565b6000600282101515611bfc57fe5b819050919050565b600061ffff82169050919050565b6000819050919050565b600060ff82169050919050565b6000819050919050565b600060ff82169050919050565b6000611c4b82611bee565b90509190505600a265627a7a72305820c1119fa26a4d4a8a9e22f7d7aeef97e1569b8e6d627c5ec35d2ed498fd9b466d6c6578706572696d656e74616cf50037",
  "source": "pragma solidity ^0.4.24;\npragma experimental ABIEncoderV2;\n\n\ncontract BallotableContents {\n\n    struct Ballot {\n        EvaluationScore evaluationScore;\n        uint stakingAmount;     // [wei]\n        address player;\n        uint createdAt;\n    }\n\n    struct EvaluationScore {\n        uint8 accuracy;\n        uint8 relevant;\n    }\n\n    enum ContentStatus {\n        Live,\n        Closed\n    }\n\n    struct Content {\n        uint8 accuracyScore;\n        ContentStatus status;\n        uint16 ballotCount;\n        uint stakedAmount;   // [wei]\n        uint closeAt;\n        mapping ( address => Ballot) ballots;\n    }\n\n    struct Reward {\n        address targetPlayer;\n        uint amount;    // [wei]\n    }\n\n    mapping (uint => Ballot[]) private contentsWithBallot;\n    mapping (uint => mapping (address => bool)) private playersForExists;\n    mapping (uint => address[]) private rewardCandidatePlayers;\n    mapping (uint => address[]) private rewardWonPlayers;\n    mapping (uint => EvaluationScore[]) private contentsWithEvaluationScore;\n    mapping (uint => bool) public contentsFinalizedStatus;\n    mapping (uint => Content) public contents;\n\n    modifier isOpen(uint contentID) {\n        require(\n            !contentsFinalizedStatus[contentID],\n            \"This content is already finalized.\"\n        );\n        _;\n    }\n\n    modifier onetimeOnly(uint contentID) {\n        require(\n            !playersForExists[contentID][msg.sender],\n            \"Only one-time to to call this function.\"\n        );\n        _;\n    }\n\n    function getBallots(\n        uint contentID\n        ) public view returns(Ballot[]) {\n        return contentsWithBallot[contentID];\n    }\n\n    function getAccuracyScore(uint contentID) public view returns(uint8) {\n        return contents[contentID].accuracyScore;\n    }\n\n    function getStakedAmount(uint contentID) public view returns(uint) {\n        return contents[contentID].stakedAmount;\n    }\n\n    function getBallotCount(uint contentID) public view returns(uint) {\n        return contents[contentID].ballotCount;\n    }\n    \n    function getRewardWonPlayers(uint contentID) public view returns(address[]) {\n        return rewardWonPlayers[contentID];\n    }\n\n    function getCloseAt(uint contentID) public view returns(uint) {\n        return contents[contentID].closeAt;\n    }\n\n    function isClosed(uint contentID) public view returns(bool) {\n        if (contentsFinalizedStatus[contentID]) {\n            return true;\n        } else {\n            Content memory _content = contents[contentID];\n            return now > _content.closeAt;\n        }\n    }\n\n    function ballot(\n        uint contentID, uint8 accuracy, uint8 relevant, uint timestamp\n        ) public payable \n        isOpen(contentID)\n        onetimeOnly(contentID)\n        {\n\n        playersForExists[contentID][msg.sender] = true;\n\n        EvaluationScore memory _score = EvaluationScore({\n            accuracy: accuracy,\n            relevant: relevant\n        });\n\n        Ballot memory _ballot = Ballot({\n            evaluationScore: _score,\n            stakingAmount: msg.value,\n            player: msg.sender,\n            createdAt: timestamp\n        });\n\n        contentsWithBallot[contentID].push(_ballot);\n        contentsWithEvaluationScore[contentID].push(_score);\n        \n        if (contents[contentID].ballotCount != 0) {\n            Content storage _content = contents[contentID];\n            _content.ballotCount += 1;\n            _content.stakedAmount += msg.value;\n            \n\n            if (!isClosed(contentID)) {\n                rewardCandidatePlayers[contentID].push(msg.sender);\n            }\n        } else {\n            Content memory _contentNew = Content({\n                accuracyScore: 0,\n                status: ContentStatus.Live,\n                ballotCount: 1,\n                stakedAmount: msg.value,\n                closeAt: now + 20 minutes\n            });\n            contents[contentID] = _contentNew;\n            rewardCandidatePlayers[contentID].push(msg.sender);\n        }\n        \n        Content storage __content = contents[contentID];\n        __content.ballots[msg.sender] = _ballot;\n\n        calcScoreAndSendRewardsIfNeeded(contentID);\n    }\n\n    function calcScoreAndSendRewardsIfNeeded(uint contentID) public isOpen(contentID) {\n        EvaluationScore[] memory _evaluations = contentsWithEvaluationScore[contentID];\n        EvaluationScore memory _evaluatedScore = calculateEvaluatedScore(_evaluations);\n\n        Content storage _content = contents[contentID];\n        _content.accuracyScore = _evaluatedScore.accuracy;\n\n        if ((isClosed(contentID) && _content.ballotCount >= 3) || _content.ballotCount >= 10) {\n            address[] memory _rewardCandidatePlayers = rewardCandidatePlayers[contentID];\n            electContributors(\n                contentID,\n                _evaluatedScore, \n                _rewardCandidatePlayers);\n            calcRewardsAndSend(contentID);\n            closeContent(contentID);\n        } else {\n            // TODO extend time?\n        }\n    }\n\n    function closeContent(uint contentID) internal {\n        contentsFinalizedStatus[contentID] = true;\n    }\n\n    function electContributors(\n        uint contentID,\n        EvaluationScore _evaluatedScore,\n        address[] _candidatePlayers\n        ) internal isOpen(contentID) {\n        \n        Content storage _content = contents[contentID];\n        uint16 _candidatePlayerslength = uint16(_candidatePlayers.length);\n        address[] memory _rewardWonPlayers = new address[](_candidatePlayerslength);\n\n        uint16 _rewardWonPlayersIndex = 0;\n\n        for (uint i=0; i < _candidatePlayerslength; i++) {\n            address _player = _candidatePlayers[i];\n            Ballot memory _ballot = _content.ballots[_player];\n            if (_ballot.evaluationScore.accuracy > _evaluatedScore.accuracy) {\n                _rewardWonPlayers[_rewardWonPlayersIndex] = _player;\n                _rewardWonPlayersIndex++;\n            }\n        }\n\n        rewardWonPlayers[contentID] = _rewardWonPlayers;\n    }\n\n    function calcRewardsAndSend(uint contentID) internal isOpen(contentID) {\n        Content storage _content = contents[contentID];\n        address[] memory _rewardWonPlayers = rewardWonPlayers[contentID];\n\n        uint16 _rewardWonPlayerslength = uint16(_rewardWonPlayers.length);\n        if (_rewardWonPlayerslength > 0) {\n            uint rewardAmountForEach = _content.stakedAmount / _rewardWonPlayerslength;\n            for (uint j=0; j < _rewardWonPlayerslength; j++) {\n                // Send reward.\n                _rewardWonPlayers[j].transfer(rewardAmountForEach);\n            }\n        }\n    }\n\n    function calculateEvaluatedScore(\n        EvaluationScore[] _evaluations) \n        internal pure returns(EvaluationScore) \n        {\n        int16 totalOfAccuracyScore = 0;\n        int16 totalOfRelevantScore = 0;\n        uint16 length = uint16(_evaluations.length);\n        for (uint16 i=0; i < length; i++) {\n            totalOfAccuracyScore += _evaluations[i].accuracy;\n            totalOfRelevantScore += _evaluations[i].relevant;\n        }\n        uint8 averageAccuracyScore = uint8(totalOfAccuracyScore / int16(length));\n        uint8 averageRelevantScore = uint8(totalOfRelevantScore / int16(length));\n        \n        EvaluationScore memory _evaluatedScore = EvaluationScore({\n            accuracy: averageAccuracyScore,\n            relevant: averageRelevantScore\n        });\n        return _evaluatedScore;\n    }\n}\n \n",
  "sourcePath": "/home/ubuntu/my_workspace/streamfilter/channels/contracts/BallotableContents.sol",
  "compiler": {
    "name": "solc",
    "version": "0.4.24+commit.e67f0147.Emscripten.clang"
  },
  "schemaVersion": "2.0.1",
  "updatedAt": "2018-10-07T12:45:03.334Z"
}