{
  "contractName": "ContentsFactory",
  "abi": [
    {
      "constant": true,
      "inputs": [
        {
          "name": "",
          "type": "uint256"
        }
      ],
      "name": "contentContractWithContentID",
      "outputs": [
        {
          "name": "",
          "type": "address"
        }
      ],
      "payable": false,
      "stateMutability": "view",
      "type": "function"
    },
    {
      "constant": true,
      "inputs": [
        {
          "name": "",
          "type": "uint256"
        }
      ],
      "name": "contentContracts",
      "outputs": [
        {
          "name": "",
          "type": "address"
        }
      ],
      "payable": false,
      "stateMutability": "view",
      "type": "function"
    },
    {
      "constant": true,
      "inputs": [
        {
          "name": "limit",
          "type": "uint256"
        },
        {
          "name": "offset",
          "type": "uint256"
        }
      ],
      "name": "getContents",
      "outputs": [
        {
          "name": "",
          "type": "address[]"
        }
      ],
      "payable": false,
      "stateMutability": "view",
      "type": "function"
    },
    {
      "constant": true,
      "inputs": [
        {
          "name": "contentID",
          "type": "uint256"
        }
      ],
      "name": "getContent",
      "outputs": [
        {
          "name": "",
          "type": "address"
        }
      ],
      "payable": false,
      "stateMutability": "view",
      "type": "function"
    },
    {
      "constant": true,
      "inputs": [],
      "name": "getContentsCount",
      "outputs": [
        {
          "name": "",
          "type": "uint256"
        }
      ],
      "payable": false,
      "stateMutability": "view",
      "type": "function"
    },
    {
      "constant": false,
      "inputs": [
        {
          "name": "contentID",
          "type": "uint256"
        }
      ],
      "name": "addContent",
      "outputs": [
        {
          "name": "",
          "type": "address"
        }
      ],
      "payable": false,
      "stateMutability": "nonpayable",
      "type": "function"
    }
  ],
  "bytecode": "0x608060405234801561001057600080fd5b506105c5806100206000396000f300608060405260043610610078576000357c0100000000000000000000000000000000000000000000000000000000900463ffffffff1680630b7ad54c1461007d57806347d522a0146100ea57806374c15a70146101765780637a580fea146101e35780637d2a961014610250578063d24a39dd1461027b575b600080fd5b34801561008957600080fd5b506100a8600480360381019080803590602001909291905050506102e8565b604051808273ffffffffffffffffffffffffffffffffffffffff1673ffffffffffffffffffffffffffffffffffffffff16815260200191505060405180910390f35b3480156100f657600080fd5b5061011f6004803603810190808035906020019092919080359060200190929190505050610325565b6040518080602001828103825283818151815260200191508051906020019060200280838360005b83811015610162578082015181840152602081019050610147565b505050509050019250505060405180910390f35b34801561018257600080fd5b506101a1600480360381019080803590602001909291905050506103b6565b604051808273ffffffffffffffffffffffffffffffffffffffff1673ffffffffffffffffffffffffffffffffffffffff16815260200191505060405180910390f35b3480156101ef57600080fd5b5061020e600480360381019080803590602001909291905050506103e9565b604051808273ffffffffffffffffffffffffffffffffffffffff1673ffffffffffffffffffffffffffffffffffffffff16815260200191505060405180910390f35b34801561025c57600080fd5b506102656104c1565b6040518082815260200191505060405180910390f35b34801561028757600080fd5b506102a6600480360381019080803590602001909291905050506104cd565b604051808273ffffffffffffffffffffffffffffffffffffffff1673ffffffffffffffffffffffffffffffffffffffff16815260200191505060405180910390f35b60006001600083815260200190815260200160002060009054906101000a900473ffffffffffffffffffffffffffffffffffffffff169050919050565b606060008054806020026020016040519081016040528092919081815260200182805480156103a957602002820191906000526020600020905b8160009054906101000a900473ffffffffffffffffffffffffffffffffffffffff1673ffffffffffffffffffffffffffffffffffffffff168152602001906001019080831161035f575b5050505050905092915050565b60016020528060005260406000206000915054906101000a900473ffffffffffffffffffffffffffffffffffffffff1681565b60008033836103f661050b565b808373ffffffffffffffffffffffffffffffffffffffff1673ffffffffffffffffffffffffffffffffffffffff16815260200182815260200192505050604051809103906000f08015801561044f573d6000803e3d6000fd5b50905060008190806001815401808255809150509060018203906000526020600020016000909192909190916101000a81548173ffffffffffffffffffffffffffffffffffffffff021916908373ffffffffffffffffffffffffffffffffffffffff1602179055505080915050919050565b60008080549050905090565b6000818154811015156104dc57fe5b906000526020600020016000915054906101000a900473ffffffffffffffffffffffffffffffffffffffff1681565b604051607f8061051b8339019056006080604052348015600f57600080fd5b50604051604080607f83398101806040528101908080519060200190929190805190602001909291905050505050603580604a6000396000f3006080604052600080fd00a165627a7a723058206bfc42950591b35036674d174211842ba7d075d362db0ab17fc43045fbba003f0029a165627a7a72305820e3f50bf36c0b222f0519a2314ccaa4484466e4827a3f1bb2e62560629e2394160029",
  "source": "pragma solidity ^0.4.24;\n\n\n// interface\ncontract BallotableContent {\n    constructor(address creator, uint contentID) public {}\n}\n\n\ncontract ContentsFactory {\n    address[] public contentContracts;\n    mapping (uint => address) public contentContractWithContentID;\n\n    function getContents(uint limit, uint offset) public view returns(address[]) {\n        // TODO use limit, offset.\n        return contentContracts;\n    }\n\n    function getContent(uint contentID) public view returns(address) {\n        return contentContractWithContentID[contentID];\n    }\n\n    function getContentsCount() public constant returns(uint) {\n        return contentContracts.length;\n    }\n\n    function addContent(uint contentID) public returns(address) {\n        BallotableContent _contentContract = new BallotableContent(msg.sender, contentID);\n        contentContracts.push(address(_contentContract));\n        return address(_contentContract);\n    }\n}",
  "sourcePath": "/Users/kenichi/Repository/ETHSF_streamfilter/channels/contracts/ContentsFactory.sol",
  "compiler": {
    "name": "solc",
    "version": "0.4.24+commit.e67f0147.Linux.g++"
  },
  "schemaVersion": "3.0.0-beta.1",
  "updatedAt": "2018-10-06T11:00:29.928Z"
}